:020000040800F2
:1000000000000220A52C00083D2C00083F2C000811
:10001000412C0008432C0008452C0008000000007B
:100020000000000000000000000000009111000826
:10003000472C00080000000021120008851200086B
:10004000F52C0008F52C0008F52C0008F52C00080C
:10005000F52C0008492C0008F52C0008F52C0008A8
:10006000F52C0008F52C0008F52C0008F52C0008EC
:10007000F52C0008F52C0008F52C0008F52C0008DC
:10008000F52C0008F52C0008F52C0008F52C0008CC
:10009000F52C0008F52C0008F52C0008F52C0008BC
:1000A000F52C0008F52C0008F52C0008F52C0008AC
:1000B0004D2C0008F52C0008F52C0008F52C000844
:1000C000F52C0008F52C0008F52C0008F52C00088C
:1000D000F52C0008F52C0008F52C0008F52C00087C
:1000E000F52C0008F52C0008F52C0008F52C00086C
:1000F000F52C0008F52C0008F52C0008F52C00085C
:10010000F52C0008F52C0008F52C0008F52C00084B
:10011000F52C0008F52C0008F52C0008F52C00083B
:10012000F52C0008F52C0008F52C0008F52C00082B
:10013000F52C0008F52C0008F52C0008F52C00081B
:10014000F52C0008F52C0008F52C0008F52C00080B
:10015000F52C0008F52C0008F52C0008F52C0008FB
:10016000F52C0008F52C0008F52C0008F52C0008EB
:10017000F52C0008F52C0008F52C00080000000004
:08018000F52C0008F52C000825
:1001900010B5054C237833B9044B13B10448AFF3C1
:1001A00000800123237010BD0C000020000000001F
:1001B000682D000808B5034B1BB103490348AFF392
:1001C000008008BD0000000010000020682D00081D
:1001D00053B94AB9002908BF00281CBF4FF0FF31AE
:1001E0004FF0FF3000F07AB9ADF1080C6DE904CEA4
:1001F00000F006F8DDF804E0DDE9022304B0704702
:100200002DE9F0478C460D460446089E002B51D13F
:100210008A4217466DD9B2FA82FEBEF1000F0BD0AA
:10022000CEF1200C01FA0EF520FA0CFC02FA0EF7C2
:100230004CEA050C00FA0EF44FEA174A250CBCFBF9
:10024000FAF81FFA87F90AFB18CC45EA0C4508FBB7
:1002500009F3AB420AD9ED1908F1FF3280F023818E
:10026000AB4240F22081A8F102083D44ED1AA4B24D
:10027000B5FBFAF00AFB105544EA054400FB09F906
:10028000A14509D9E41900F1FF3380F00A81A145A5
:1002900040F2078102383C44A4EB090440EA0840DC
:1002A0000021002E61D024FA0EF400233460736024
:1002B000BDE8F0878B4207D9002E54D0002186E894
:1002C00021000846BDE8F087B3FA83F1002940F029
:1002D0008E80AB4202D3824200F2FA80841A65EB30
:1002E00003050120AC46002E3FD086E81010BDE883
:1002F000F08712B90127B7FBF2F7B7FA87FEBEF114
:10030000000F34D1EB1B3A0C1FFA87FC0121B3FB21
:10031000F2F8250C02FB183345EA03450CFB08F301
:10032000AB4207D9ED1908F1FF3002D2AB4200F21F
:10033000D1808046ED1AA3B2B5FBF2F002FB105556
:1003400043EA05440CFB00FCA44507D9E41900F17D
:10035000FF3302D2A44500F2B8801846A4EB0C0487
:1003600040EA08409DE731463046BDE8F087CEF1CF
:10037000200405FA0EF307FA0EF720FA04F83A0CF7
:1003800025FA04F448EA0308B4FBF2F14FEA1845F1
:1003900002FB11441FFA87FC45EA044501FB0CF3FC
:1003A000AB4200FA0EF409D9ED1901F1FF3080F0EB
:1003B0008A80AB4240F2878002393D44EB1A1FFA33
:1003C00088F5B3FBF2F002FB103345EA034500FB6E
:1003D0000CF3AB4207D9ED1900F1FF386FD2AB42F5
:1003E0006DD902383D44EB1A40EA01418FE7C1F173
:1003F000200722FA07F88B4005FA01F448EA0303C4
:1004000020FA07FE4FEA134CFD404EEA040EB5FBFE
:10041000FCF94FEA1E440CFB19551FFA83F844EA15
:10042000054509FB08F4AC4202FA01F200FA01FAB0
:1004300008D9ED1809F1FF3043D2AC4241D9A9F1F6
:1004400002091D442D1B1FFA8EFEB5FBFCF00CFBB0
:1004500010554EEA054400FB08F8A04507D9E418FA
:1004600000F1FF3529D2A04527D902381C4440EAC3
:100470000940A4EB0804A0FB02894C45C6464D4642
:1004800015D312D056B1BAEB0E0364EB050404FA8F
:1004900007F7CB401F43CC40376074600021BDE8B4
:1004A000F0871846F8E69046E0E6C245EAD2B8EB97
:1004B000020E69EB03050138E4E72846D7E740461A
:1004C00091E78146BEE7014678E702383C4445E7BC
:1004D000084608E7A8F102083D442BE7704700BF33
:1004E00008B50B4B1A6842F400721A601A6842F49D
:1004F00080621A601A6842F480721A60032000F069
:100500001BF8002002F05EFB02F032FB002008BD69
:10051000003C0240034A044B11681B780B441360F3
:10052000704700BF783D002000000020014B186894
:10053000704700BF783D0020074AD36823F4E0638A
:100540001B041B0C43F0BF63000243F4003300F4B0
:10055000E0600343D360704700ED00E0174B30B517
:10056000DC68C4F30224C4F10703251D042B28BF53
:100570000423062D4FF0010505FA03F303F1FF33C1
:100580008CBF033C00241940A14005FA04F4013C4F
:100590002240002842EA01024FEA0212ADBF00F1F8
:1005A000604000F00F00064B00F56140B5BFD2B2CD
:1005B000D2B21A5480F8002330BD00BF00ED00E035
:1005C00014ED00E0002808DB4209012300F01F00C1
:1005D00003FA00F0014B43F82200704700E100E00D
:1005E0002DE9F04F85B00B68DFF8AC81684ADFF881
:1005F000AC91019300234FF0010E019C0EFA03FE13
:100600000EEA0406B64540F0AE804C6824F01007B0
:10061000022F16D14FEAD30A00EB8A0A03F0070B28
:10062000DAF820504FEA8B0B4FF00F0C0CFA0BFC52
:1006300025EA0C0C0D6905FA0BF545EA0C05CAF81C
:1006400020504FEA430A0325D0F800B005FA0AF516
:10065000ED4304F0030C0BEA050B0CFA0AFC013F16
:100660004CEA0B0C012FC0F800C011D8876807EACC
:10067000050BCF6807FA0AFC4CEA0B07876047684E
:1006800027EA0E0EC4F300179F4047EA0E074760A3
:10069000C7683D408F6807FA0AF73D43C560E5002B
:1006A00061D54FF0000BCDF80CB0D8F84470394D3F
:1006B00047F48047C8F84470D8F8447007F480477E
:1006C0000397039F23F0030707F1804707F59C3743
:1006D00003F0030CD7F808A04FEA8C0C4FF00F0E74
:1006E0000EFA0CFEA8422AEA0E0E43D005F58065EC
:1006F000A84241D005F58065A8423FD005F5806548
:10070000A8423DD005F58065A8423BD048453BD086
:1007100005F50065A84239D005F58065A84214BFEB
:100720000825072505FA0CF545EA0E05BD60156894
:10073000F74314F4803F0CBF3D40354315605568C6
:1007400014F4003F0CBF3D4035435560956814F4E8
:10075000801F0CBF3D4035439560D568A40254BF4F
:100760003D403543D5600133102B7FF444AF05B0D5
:10077000BDE8F08F5D46D5E70125D3E70225D1E737
:100780000325CFE70425CDE70525CBE70625C9E7F7
:10079000003C0140000002400038024000140240CA
:1007A0000AB1816170470904FBE7436931EA030339
:1007B00008BF0904816170472DE9F341044618B967
:1007C000012002B0BDE8F0810368DD0710D4236882
:1007D000980758D423681A0700F19A8023685B07AA
:1007E00000F1B880A269002A40F019810020E8E7F2
:1007F000A64B9A6802F00C02042A07D09A6802F00D
:100800000C02082A0AD15B68590207D59F4B1B6866
:100810009A03DCD56368002BD9D1D1E763689B4D7F
:10082000B3F5803F11D12B6843F480332B60FFF781
:100830007DFE964D06462B689B03C8D4FFF776FED7
:10084000801B6428F7D90320BBE7B3F5A02F04D1A0
:100850002B6843F480232B60E5E72A6822F480327A
:100860002A602A6822F480222A60002BDFD1FFF759
:100870005DFE06462B689F03A9D5FFF757FE801B38
:100880006428F7D9DFE7814B9A6812F00C0F07D084
:100890009A6802F00C02082A11D15B685E020ED43D
:1008A0007A4B1A68950702D5E268012A88D11A683E
:1008B000216922F0F80242EAC1021A608AE7E2687E
:1008C000734BB2B101221A60FFF730FE6F4D06463E
:1008D0002B68980707D52B68226923F0F80343EAB1
:1008E000C2032B6076E7FFF721FE801B0228EFD9B9
:1008F000A9E71A60FFF71AFE644D06462B689907B0
:100900007FF568AFFFF712FE801B0228F6D99AE741
:100910006269604B7AB101221A60FFF707FE5B4DF6
:1009200006466B6F9F073FF559AFFFF7FFFD801B32
:100930000228F6D987E71A60FFF7F8FD534D0646FF
:100940006B6F98077FF54AAFFFF7F0FD801B022819
:10095000F6D978E74D4B1A6C12F0805228D10192EB
:100960001A6C42F080521A641B6C03F0805301939E
:10097000019B0126484D2B68D9051BD5A368434D23
:10098000012B27D12B6F43F001032B67FFF7CEFD1F
:100990003E4D074641F288382B6F9B0739D5002E14
:1009A0003FF420AF394A136C23F08053136419E7E6
:1009B0000026DFE72B6843F480732B60FFF7B6FD5A
:1009C00007462B68DA05D9D4FFF7B0FDC01B022813
:1009D000F7D938E7052B04D12B6F43F004032B67BD
:1009E000D0E72A6F22F001022A672A6F22F0040260
:1009F0002A67002BCAD1FFF799FD41F288380746D4
:100A00002B6F9807CBD5FFF791FDC01B4045F7D959
:100A100019E7FFF78BFDC01B4045BDD913E71B4D00
:100A2000AB6803F00C03082B3FF4CAAE1B4E002347
:100A3000022A336034D1FFF779FD07462B6899010C
:100A40001ED4226AE3691343626A43EA8213E26AAC
:100A500043EA0263A26A0D4C5208013A43EA024398
:100A60006B6001233360FFF761FD054623689A013F
:100A70003FF5BCAEFFF75AFD401B0228F6D9E2E66F
:100A8000FFF754FDC01B0228D8D9DCE6003802402D
:100A900000004742800E474200700040600047421D
:100AA000FFF744FD04462B689B017FF59FAEFFF7DF
:100AB0003DFD001B0228F6D9C5E600BF134908B565
:100AC0008B6803F00C03042B03D0082B03D01048D1
:100AD00008BD104808BD4A684B68496813F4800394
:100AE00014BF0C480A48C1F3881118BF002302F054
:100AF0003F02A1FB0001FFF76BFB044B5B68C3F3F4
:100B0000014301335B00B0FBF3F008BD0038024045
:100B10000024F40000127A002DE9F0410D4604464D
:100B200010B90120BDE8F081444B1A6802F00F02B1
:100B30008A4228D321688F072DD4C80740D43F4B61
:100B40001A6802F00F02954266D3226851076CD4EE
:100B5000130707D53A4A2169936823F4604343EAAF
:100B6000C1039360FFF7AAFF354B364A9B68C3F376
:100B70000313D35CD840344B1860002002F022F8F5
:100B80000020BDE8F081CAB21A701B6803F00F03A1
:100B90009942C6D1CEE72A4B11F0040F1EBF9A68C6
:100BA00042F4E0529A600E0742BF9A6842F46042F3
:100BB0009A609A68A06822F0F00202439A60BCE74B
:100BC00062681F4B012A1DD11B6813F4003FA8D097
:100BD0001B4EB36823F003031343B360FFF7A6FC77
:100BE00041F288380746B368626803F00C03B3EB40
:100BF000820FA4D0FFF79AFCC01B4045F3D9032015
:100C0000BDE8F081911E01291B6802D813F0007F16
:100C1000DDE713F0020FDAE7EAB21A701B6803F09F
:100C20000F039D427FF47DAF8FE70549E0688B6835
:100C300023F4E05303438B608AE700BF003C02408B
:100C400000380240042E000808000020044B054A2A
:100C50009B68C3F38223D35C034A1068D840704773
:100C600000380240142E0008080000200F23036003
:100C70000B4B9A6802F0030242609A6802F0F0029D
:100C800082609A6802F4E052C2609B68DB0803F459
:100C9000E0530361034B1B6803F00F030B607047C5
:100CA00000380240003C024070470368DA6842F0B6
:100CB0000102DA609A6802F00702062A1EBF1A686B
:100CC00042F001021A600020704770477047704779
:100CD000704703681A69910710B504460ED5DA68A3
:100CE00092070BD56FF002021A619B6901229B07E4
:100CF000027777D0FFF7EAFF0023237723681A698A
:100D0000500710D5DA6851070DD56FF004021A614B
:100D10009B69022213F4407F2277204668D0FFF7B8
:100D2000D5FF0023237723681A6912070FD5DA68E5
:100D300010070CD56FF008021A61DB6904229907CD
:100D4000227720465AD0FFF7C1FF0023237723687C
:100D50001A69D20610D5DA68D0060DD56FF01002E8
:100D60001A61DB69082213F4407F227720464BD0BA
:100D7000FFF7ACFF0023237723681A69D10708D552
:100D8000DA68D20705D56FF001021A61204601F03A
:100D9000E7FE23681A69100608D5DA68110605D53A
:100DA0006FF080021A61204600F0B7F823681A69D4
:100DB000520608D5DA68500605D56FF040021A6170
:100DC0002046FFF785FF23681A69910622D5DA6865
:100DD00092061FD56FF0200220461A61BDE8104030
:100DE00000F09AB8FFF771FF2046FFF770FF83E726
:100DF000FFF76BFF2046FFF76AFF92E7FFF765FFFB
:100E00002046FFF764FFA0E7FFF75FFF2046FFF7EC
:100E10005EFFAFE710BD0000304A0368904212D079
:100E2000B0F1804F0FD0A2F57C4290420BD002F57A
:100E30008062904207D002F58062904203D002F5B2
:100E40007842904219D14A6823F070031343234A31
:100E5000904229D0B0F1804F26D0A2F57C4290423A
:100E600022D002F5806290421ED002F5806290424C
:100E70001AD002F57842904216D0194A904213D007
:100E800002F5806290420FD002F5806290420BD052
:100E9000A2F59832904207D002F58062904203D0CA
:100EA00002F58062904203D1CA6823F44073134371
:100EB0004A6923F08003134303608B68C3620B68A5
:100EC0008362064B984203D003F58063984201D1B8
:100ED0000B69036301234361704700BF00000140B9
:100EE0000040014010B50446A0B190F83D3003F039
:100EF000FF021BB980F83C20FFF7D6FE022384F8DE
:100F00003D302068211DFFF787FF012384F83D3025
:100F1000002010BD012010BD7047704708B501F0DA
:100F2000E3F8002008BD30B5B0F90840028A0B464E
:100F300090E8220085B0842C14BF0334002403A859
:100F400001900094284600F02FFF01280CBF039861
:100F5000002005B030BD08B5002808BF012001F011
:100F600011FA002008BD012000F0FEBC13B50024DA
:100F70000194E0B1EFF30583A3B101AA214600F08B
:100F800019FE012802D0FF2002B010BD019B3BB129
:100F9000084B4FF080521A60BFF34F8FBFF36F8F33
:100FA0000020F1E700F046FD0128ECD1F8E78020B1
:100FB000EAE700BF04ED00E013B500240194EFF36D
:100FC000058393B101A900F0E1FC012813D1019B35
:100FD00013B9002002B010BD084B4FF080521A60C8
:100FE000BFF34F8FBFF36F8FF3E71A46194600F038
:100FF00005FC0128EDD0FF20ECE700BF04ED00E088
:10100000FFF7DABF08B500F09FFF04289ABF024B34
:10101000185C6FF0004008BDD02D000808B501F045
:101020000FFA002008BD000008B5EFF305836BB18F
:1010300001F00AF8012807D1064B4FF080521A60E0
:10104000BFF34F8FBFF36F8F002008BD00F0BAFFD2
:10105000FAE700BF04ED00E000F1080343604FF041
:10106000FF32C36003610023826003607047002386
:101070000361704743684B609A688A609A68516060
:101080009960036808610133036070470A68531C64
:1010900030B50AD103695A684A6091608B60596023
:1010A000036808610133036030BD00F108035C6828
:1010B0002568AA42EFD32346F9E7416882680369AD
:1010C0008A60826851605968884208BF5A6000226D
:1010D00002611A68013A1A601868704782B00023EA
:1010E00001930D4B1B68013308D04FF0500383F37D
:1010F0001188BFF36F8FBFF34F8FFEE74FF05003A0
:1011000083F31188BFF36F8FBFF34F8F019B002BC9
:10111000FCD002B0704700BF0400002008480068FF
:10112000006880F308884FF0000080F3148862B6EE
:1011300061B6BFF34F8FBFF36F8F00DF00BF0000BA
:1011400008ED00E0DFF80C00016841F47001016077
:101150007047000088ED00E04FF0807340F8043CD9
:10116000074B40F80C3C21F001016FF0020340F8FE
:10117000081C40F8202C40F8243C4438704700BF3D
:10118000DD1000080000000000000000000000006A
:10119000074B19680868B0E8F04F80F30988BFF37F
:1011A0006F8F4FF0000080F311887047AFF300801D
:1011B000483C00204FF0500383F31188BFF36F8F3A
:1011C000BFF34F8F0A4A13680133012B13600DD10F
:1011D000084B1B6813F0FF0F08D04FF0500383F348
:1011E0001188BFF36F8FBFF34F8FFEE7704700BFCB
:1011F0000400002004ED00E0084A136843B94FF0F2
:10120000500383F31188BFF36F8FBFF34F8FFEE757
:10121000013B13600BB983F3118870470400002071
:10122000EFF30980BFF36F8F154B1A681EF0100F94
:1012300008BF20ED108A20E9F04F10602DE9090069
:101240004FF0500080F31188BFF34F8FBFF36F8FC3
:1012500001F0BCF84FF0000080F3118809BC196858
:101260000868B0E8F04F1EF0100F08BFB0EC108A0D
:1012700080F30988BFF36F8F704700BFAFF3008022
:10128000483C002008B54FF0500383F31188BFF3AA
:101290006F8FBFF34F8F00F06BFF18B1034B4FF010
:1012A00080521A60002383F3118808BD04ED00E02A
:1012B000084A0949002313600B60084B4FF47A7108
:1012C0001B68B3FBF1F30649013B0B600723136076
:1012D000704700BF10E000E018E000E008000020C8
:1012E00014E000E0394B3A4A13B51968914208D12D
:1012F0004FF0500383F31188BFF36F8FBFF34F8F0D
:10130000FEE71A68334B9A4208D14FF0500383F33B
:101310001188BFF36F8FBFF34F8FFEE72E4B1A7804
:10132000D2B20192FF221A701B782C4ADBB28DF8E0
:1013300003309DF8033003F050031370284B07224D
:101340001A6000219DF80300000602F1FF340DD45D
:1013500001B11A601A68032A11D04FF0500383F3C9
:101360001188BFF36F8FBFF34F8FFEE79DF8032007
:101370005200D2B28DF8032001212246E2E7120288
:1013800002F4E0621A60019B134ADBB21370154B42
:101390001A6842F470021A601A6842F070421A60C9
:1013A000FFF786FF104B00241C60FFF7CBFE0F4AAF
:1013B000136843F040431360FFF7B0FE01F006F8F6
:1013C000FFF78CFE204602B010BD00BF00ED00E02C
:1013D00071C20F4170C20F4100E400E028000020FC
:1013E0002C00002020ED00E00400002034EF00E09D
:1013F000EFF305830F2B0ED9104A9B5C104A12782D
:101400009A4208D94FF0500383F31188BFF36F8FCE
:10141000BFF34F8FFEE70B4B0B4A1B68126803F4B8
:10142000E063934208D94FF0500383F31188BFF370
:101430006F8FBFF34F8FFEE7704700BFF0E300E010
:10144000280000200CED00E02C00002010B50F4B10
:101450001A68824218D35C681919884201BF416832
:10146000184609195960446801198A4207D1084988
:1014700009688A421FBF5168126809194160984281
:10148000026018BF186010BD1346E1E7403C002021
:10149000300000202DE9F041044600F061FE3E4995
:1014A0003E4D0B680BBB3E4A56071FBFD01D20F0B8
:1014B000070002F570531B1A14BF02464FF4705315
:1014C0001344083B23F00703364E0B600020706086
:1014D000326058601860981A1360334B506018607F
:1014E000324B18604FF000432B602F68274216D113
:1014F000002C41D004F1080358071CBF23F0070358
:10150000083363B1294A1668B342904607D8254A82
:1015100015686868834204D809688D4207D10024A1
:101520002AE02C68002CF7D02A462546F1E72968E6
:1015300014681160C21A102A0FD9E818410708D0A0
:101540004FF0500383F31188BFF36F8FBFF34F8FBA
:10155000FEE742606B60FFF779FF13496B6808682C
:10156000F61A1F4386424FF00003C8F8006038BFE8
:101570000E6008346F602B6000F08CFE630708D0AB
:101580004FF0500383F31188BFF36F8FBFF34F8F7A
:10159000FEE72046BDE8F08130000020343C00200A
:1015A00034000020403C00203C3C0020383C00201F
:1015B00010B5044670B3184A50F8043C1268134240
:1015C00008D14FF0500383F31188BFF36F8FBFF33F
:1015D0004F8FFEE750F8081C41B14FF0500383F3E2
:1015E0001188BFF36F8FBFF34F8FFEE723EA02032B
:1015F00040F8043C00F0B4FD084A54F8043C11687B
:10160000A4F108000B441360FFF720FFBDE8104071
:1016100000F040BE10BD00BF343C0020383C00202C
:1016200010B50446FFF7C6FDA46BFFF7E5FDB4FA5D
:1016300084F0400910BD70B51546026C866B0446F7
:1016400042B905689DB9406801F074F865600136DB
:10165000A66370BD6DB9806801F072FBA368226C4F
:1016600013446268A360934201D32368A3600020FF
:10167000EDE7C06801F064FB236CE26821685B421F
:101680001A448A42E2603EBF62689B18E360022D02
:10169000EDD10EB1013EEAE73046D8E7034610B47B
:1016A0001A6C084662B1D9685C681144A142D960DD
:1016B00024BF1968D960D9685DF8044B01F040BBBC
:1016C0005DF8044B704770B50446FFF773FD94F85E
:1016D000455004F124066DB2002D14DCFF2384F87C
:1016E0004530FFF789FDFFF765FD94F8445004F19C
:1016F00010066DB2002D12DCFF2384F84430BDE8E3
:101700007040FFF779BD636A002BE7D0304600F0E8
:101710001DFF08B100F0A4FF013D6DB2DCE72369B5
:10172000002BE9D0304600F011FF08B100F098FF1F
:10173000013D6DB2DEE7000038B50D46044640B904
:101740004FF0500383F31188BFF36F8FBFF34F8FB8
:10175000FEE7FFF72FFD206CE36B2268A260434396
:10176000D1181B1A13446160E3600021FF23A163B9
:1017700084F8443084F8453095B9236963B104F1A5
:10178000100000F0E3FE38B10A4B4FF080521A60AF
:10179000BFF34F8FBFF36F8FFFF72EFD012038BDD2
:1017A00004F11000FFF758FC04F12400FFF754FC8B
:1017B000F2E700BF04ED00E070B50D46064640B903
:1017C0004FF0500383F31188BFF36F8FBFF34F8F38
:1017D000FEE748434830FFF75DFE044638B145B99F
:1017E0002060E663256401212046FFF7A5FF20461F
:1017F00070BD00F148030360F3E700002DE9FF47E7
:10180000894601921F46044640B94FF0500383F3C6
:101810001188BFF36F8FBFF34F8FFEE7002940F0B1
:101820008880036C002B00F084804FF0500383F31A
:101830001188BFF36F8FBFF34F8FFEE7019E002E1D
:1018400000F082804FF0500383F31188BFF36F8F55
:10185000BFF34F8FFEE7019D1DB9FFF7CDFC0020C0
:1018600058E016B902A800F0B3FEFFF7C5FC00F07F
:1018700077FCFFF79FFC94F84430FF2B08BF84F8F7
:10188000448094F84530FF2B08BF84F84580FFF76B
:10189000B3FC01A902A800F0A7FE002843D1FFF77E
:1018A00089FCA66BE56BFFF7A7FCAE4235D1019929
:1018B00004F1100000F030FE2046FFF704FF00F0B6
:1018C000E9FC38B94FF08053CAF80030BFF34F8FAE
:1018D000BFF36F8F0126FFF76DFCA26BE36B9A429B
:1018E00001D3022FB7D13A4649462046FFF7A3FE5F
:1018F000636A1BB104F1240000F028FE38B1194BD3
:101900004FF080521A60BFF34F8FBFF36F8FFFF716
:1019100073FC012004B0BDE8F0872046FFF7D3FE3A
:1019200000F0B8FCD6E72046FFF7CDFE00F0B2FC91
:1019300095E7022F02D1E36B012B0AD100F096FE4E
:1019400000283FF47BAF00264FF00008DFF814A01A
:10195000C1E74FF0500383F31188BFF36F8FBFF3DC
:101960004F8FFEE704ED00E010B502460021012094
:10197000FFF722FF044638B1002343600360C360D1
:101980001A461946FFF73AFF204610BD70B50D46BE
:10199000044640B94FF0500383F31188BFF36F8FB3
:1019A000BFF34F8FFEE7036C43B14FF0500383F357
:1019B0001188BFF36F8FBFF34F8FFEE703680BB93A
:1019C000436873BBFFF714FDEFF311864FF050032C
:1019D00083F31188BFF36F8FBFF34F8FA26BE36B5D
:1019E0009A4201D3002014E094F8453001325BB2F2
:1019F000A2635A1C10D1636A0BB9012009E004F1FB
:101A0000240000F0A3FD0028F7D0002DF5D0012020
:101A1000286086F3118870BD01335BB284F84530CD
:101A2000EBE74FF0500383F31188BFF36F8FBFF3E1
:101A30004F8FFEE72DE9FF410446019140B94FF079
:101A4000500383F31188BFF36F8FBFF34F8FFEE70F
:101A5000056C45B14FF0500383F31188BFF36F8FCE
:101A6000BFF34F8FFEE700F001FE18B9019D002D76
:101A700040F09580DFF838812E460027FFF79AFB6B
:101A8000A36BE3B1013BA363236813B900F0FCFE31
:101A90006060236963B104F1100000F057FD38B1B4
:101AA000434B4FF080521A60BFF34F8FBFF36F8FDD
:101AB000FFF7A2FB0125284604B0BDE8F081019B99
:101AC00063B945B14FF0500383F31188BFF36F8FB3
:101AD000BFF34F8FFEE7FFF78FFBECE716B902A8C5
:101AE00000F076FDFFF788FB00F03AFBFFF762FBA2
:101AF00094F84430FF2B08BF84F8447094F84530C4
:101B0000FF2B08BF84F84570FFF776FB01A902A8F8
:101B100000F06AFD40BB2046FFF782FDF0B123686C
:101B20003BB9FFF747FB606800F0B0FD0546FFF7E3
:101B300063FB019904F1240000F0EEFC2046FFF75E
:101B4000C2FD00F0A7FB38B94FF08053C8F8003051
:101B5000BFF34F8FBFF36F8F01268FE72046FFF74C
:101B6000B2FD00F097FBF7E72046FFF7ACFD00F071
:101B700091FB2046FFF754FD0028EDD0002D9AD0B0
:101B8000FFF718FB616A19B1236B1968C1F10701EE
:101B9000606800F01FFE0025FFF72EFB8BE74FF07B
:101BA000500383F31188BFF36F8FBFF34F8FFEE7AE
:101BB00004ED00E02DE9F84389469046054640B91A
:101BC0004FF0500383F31188BFF36F8FBFF34F8F34
:101BD000FEE771BB036C63B34FF0500383F31188CE
:101BE000BFF36F8FBFF34F8FFEE795F84460494610
:101BF00076B22846FFF752FD013C731CAC6313D14B
:101C00002B690BB901200BE005F1100000F09EFCE0
:101C10000028F7D0B8F1000FF4D00120C8F8000078
:101C200087F31188BDE8F883013676B285F8446001
:101C3000E8E7FFF7DDFBEFF311874FF0500383F385
:101C40001188BFF36F8FBFF34F8FAC6B002CCCD1DB
:101C50002046E5E740B94FF0500383F31188BFF306
:101C60006F8FBFF34F8FFEE74269064B9A4201D058
:101C700000207047806A044B9842F9D0B0FA80F097
:101C800040097047443D00202C3D0020064A13685F
:101C90001968064B19B94FF0FF321A607047126885
:101CA000D268D2685268F8E74C3C0020243D0020FE
:101CB000F8B51B4B1B4E1D680446306804300F46B8
:101CC000FFF7FBF9334640B93168174EC96A3268ED
:101CD0000120884022EA00023260621C07D137B13D
:101CE000196812480431BDE8F840FFF7C3B92C4425
:101CF0001A68A542546007D90D4A10681968BDE8F2
:101D0000F8400431FFF7C2B90A4A10681968043173
:101D1000FFF7BCF9084B1A68944238BF1C60F8BD45
:101D20006C3D0020483C0020F43C0020443D002055
:101D3000503C00204C3C0020243D002080B5DFF8C2
:101D40006480144F144C154E236863B9144B1B6800
:101D5000012BF8D94FF08053C8F80030BFF34F8FF4
:101D6000BFF36F8FEEE7FFF725FAFB68DD68281DEC
:101D7000FFF7A3F93368013B33602368013B23601D
:101D8000FFF73AFA286BFFF713FC2846FFF710FC21
:101D9000DAE700BF583D0020E43C0020E03C002092
:101DA000543C002004ED00E02DE9F84F4FEA820A90
:101DB000804650460F4699460B9EFFF76BFB054643
:101DC000002800F096805420FFF764FB04460028AA
:101DD00000F08C80AAF1040A056355447B1E25F0AF
:101DE000070A00F134020F37597802F8011B13F883
:101DF000011F09B1BB42F7D10A9D062D28BF062558
:101E00004FF0000B271DE5626564384684F843B047
:101E1000C4F848B0FFF72BF9C5F1070504F1180025
:101E2000FFF725F9C4F84CB02461A561646284F819
:101E300050B04A4641465046FFF78EF9206006B141
:101E40003460FFF7B7F9324B324E1A68DFF8F08092
:101E500001321A603568002D4ED134601B68012BA9
:101E60001DD108EB05001435FFF7F6F88C2DF8D1DD
:101E7000DFF8D090284D4846FFF7EEF82846FFF7E8
:101E8000EBF82648FFF7E8F82548FFF7E5F825487E
:101E9000FFF7E2F8244BC3F80090244B1D60244A5E
:101EA00024491368086801331360E26A012505FAC2
:101EB00002F3034314200B6000FB02803946FFF756
:101EC000D9F8FFF799F91C4B1B6863B13368DA6ADC
:101ED000E36A9A4207D2194B4FF080521A60BFF35F
:101EE0004F8FBFF36F8F2846BDE8F88F2846FFF766
:101EF0005FFB4FF0FF35F6E70F4B1B68002BCED191
:101F00003368DA6AE36A9A4298BF3460C7E700BF71
:101F1000E03C0020483C00200C3D00202C3D0020EF
:101F2000583D0020443D00204C3C0020503C002007
:101F3000F03C0020F43C0020403D002004ED00E097
:101F4000543C0020F83C002038B5054640B94FF01D
:101F5000500383F31188BFF36F8FBFF34F8FFEE7FA
:101F6000134B1B6898421DD0FFF724F96C69FFF7EB
:101F700043F9104B1B689C4216D00F4B1B689C42C8
:101F800012D00E4B9C4205D1AB6A002B14BF02202D
:101F9000032038BD0A4B9C4208D0002C0CBF042003
:101FA000012038BD002038BD022038BD042038BDD6
:101FB000483C00204C3C0020503C0020443D002088
:101FC000583D002070B5044640B94FF0500383F3EC
:101FD0001188BFF36F8FBFF34F8FFEE7164D2B684D
:101FE000984228D0FFF7E6F82046FFF733FEF0B11D
:101FF000261D3046FFF761F81049E26A08680123A0
:10200000934003430B600E4B142000FB023031461B
:10201000FFF730F82B68E26ADB6A9A4207D3094B74
:102020004FF080521A60BFF34F8FBFF36F8FBDE840
:102030007040FFF7E1B870BD483C0020F43C002040
:10204000543C002004ED00E0F8B5054640B94FF0DF
:10205000500383F31188BFF36F8FBFF34F8FFEE7F9
:10206000FFF7C6F9EFF311864FF0500383F31188A1
:10207000BFF36F8FBFF34F8F2846FFF7EBFD38B3E9
:10208000144B1B68EBB9144BEC6A1B68D86A2F1D04
:102090008442384634BF00240124FFF70EF80F496C
:1020A000EA6A08680123934003430B600C4B142039
:1020B000394600FB0230FEF7DDFF86F3118820462B
:1020C000F8BD05F118010748FEF7D4FF0024F4E736
:1020D0000446F2E7EC3C0020483C0020F43C0020A1
:1020E000543C00202C3D002013B5174B01930024D5
:1020F00000942346802215491548FFF755FE012814
:1021000014D14FF0500383F31188BFF36F8FBFF3E7
:102110004F8F104B4FF0FF321A600F4B18600F4B70
:102120001C6002B0BDE81040FFF7DCB8013008D1F8
:102130004FF0500383F31188BFF36F8FBFF34F8FBE
:10214000FEE702B010BD00BF203D0020D52D0008E5
:102150003D1D0008243D0020403D00206C3D002036
:10216000024A136801331360704700BFEC3C002043
:102170002DE9F84F3C4B1B68002B53D13B4B1C689F
:1021800001341C60BCB93A4B1A68126842B14FF076
:10219000500383F31188BFF36F8FBFF34F8FFEE7B8
:1021A000344A1968106818601160334A13680133A3
:1021B0001360FFF76BFD314D314F2B689C424FF0A0
:1021C000000B3ED3DFF8A880DFF8C490D8F80020D9
:1021D000126872BB4FF0FF322A6032E006F1040A47
:1021E0005046FEF76AFFB16A19B106F11800FEF712
:1021F00064FFF06AD9F80030012202FA00F11943B5
:10220000204BC9F800104FF0140E51460EFB003061
:10221000FEF730FF3868F16AC26A914228BF4FF07A
:10222000010BD3E7184A1368013313604FF0000B1A
:1022300011E0D8F80020D268D66871688C42CDD2FF
:1022400029603A680F4BD16A14224A439A58022AED
:1022500028BF4FF0010B0D4A1268002A18BF4FF03B
:10226000010B5846BDE8F88FEC3C00206C3D002087
:102270004C3C0020503C0020283D0020243D002004
:10228000483C0020543C0020E83C0020703D0020E9
:10229000F43C00202DE9F843314C236843B94FF05A
:1022A000500383F31188BFF36F8FBFF34F8FFEE7A7
:1022B000FEF780FF2368013B236024682CB10024D3
:1022C000FEF79AFF2046BDE8F883264B1B68002BDB
:1022D000F5D0DFF8A890244FDFF8A480D9F80030BB
:1022E000E3B90CB1FFF7D2FC204D2C6844B1204E6D
:1022F0000127FFF73DFF00B13760013CF9D12C60A9
:102300001B4B1B68002BDAD01A4B4FF080521A601F
:10231000BFF34F8FBFF36F8F0124D1E7D9F80C3093
:10232000DC68261D04F11800FEF7C7FE3046FEF7F4
:10233000C4FEE26A3968012505FA02F314200B4352
:1023400000FB028031463B60FEF794FE0A4BE26AD6
:102350001B68DB6A9A4224BF054B1D60BEE700BFC5
:10236000EC3C0020E03C0020F43C0020E83C002055
:10237000703D002004ED00E0483C00202C3D002092
:10238000543C002008B540B90E4B4FF080521A6003
:10239000BFF34F8FBFF36F8F08BD0B4B196841B16F
:1023A0004FF0500383F31188BFF36F8FBFF34F8F4C
:1023B000FEE7FFF7D5FEFFF77BFCFFF76BFF00287A
:1023C000E2D008BD04ED00E0EC3C0020174B1A6899
:1023D000174B10B512B101221A6010BD1A60154BCF
:1023E0001B68B3FA83F3DBB2C3F11F031422124953
:1023F0005A4388188C5844B94FF0500383F311881E
:10240000BFF36F8FBFF34F8FFEE7446808326468F5
:1024100044600A44944204BF62684260142202FB92
:1024200003135B68DA68054BD6E700BFEC3C00207D
:10243000703D0020F43C0020543C0020483C00202B
:1024400070B504462C4EFEF7B5FE04B93468251D60
:102450002846FEF732FE60B9E06A284B142141435A
:102460005B5833B9264901220B68824023EA0203F4
:102470000B60A36A1BB104F11800FEF71EFE29468B
:102480002048214DFEF7F6FD94F85030012B04BF93
:10249000002384F85030FEF7AFFE2A682AB1FEF719
:1024A00089FEFFF7F3FBFEF7A7FE33689C4222D1BB
:1024B0002B68A3B1154B1B6843B14FF0500383F356
:1024C0001188BFF36F8FBFF34F8FFEE7104B4FF0B4
:1024D00080521A60BFF34F8FBFF36F8F70BD094AF0
:1024E00011680C4A1268914201D1336070BDBDE899
:1024F0007040FFF76BBF70BD483C0020543C00208B
:10250000F43C0020443D0020403D0020EC3C0020F5
:1025100004ED00E0E03C002010B50C4640B94FF05F
:10252000500383F31188BFF36F8FBFF34F8FFEE724
:10253000054B19681831FEF7A9FD20460121BDE8B9
:102540001040FFF7B5BB00BF483C002038B5C3685A
:10255000DC6844B94FF0500383F31188BFF36F8FE9
:10256000BFF34F8FFEE704F118052846FEF7A5FDDF
:10257000114B1B68E3B9251D2846FEF79EFD0F4948
:10258000E26A08680123934003430B600C4B14205C
:10259000294600FB0230FEF76DFD0A4BE26A1B681C
:1025A000DB6A9A4283BF084B01201860002038BDC7
:1025B00029460648EFE700BFEC3C0020F43C002031
:1025C000543C0020483C0020703D00202C3D002061
:1025D000034B1B680360034B1B684360704700BFDD
:1025E000283D00206C3D002070B50C46054640B9E2
:1025F0004FF0500383F31188BFF36F8FBFF34F8FFA
:10260000FEE741B94FF0500383F31188BFF36F8F9A
:10261000BFF34F8FFEE7FEF7CDFD0F4B69681A68D9
:102620002368581C0ED00D482E680068864201D0E1
:102630008A420ED2521A9A4209D29B1A2360284625
:10264000FFF7C6FF0024FEF7D7FD204670BD00232C
:1026500023600124F7E700BF6C3D0020283D0020E7
:10266000014B01221A607047703D0020054B1B682A
:1026700033B1054B1B68002B0CBF022000207047B4
:1026800001207047403D0020EC3C00202DE9F04146
:102690000446002841D0244AC36A1168C96A8B42A3
:1026A000174631D28269214D002AA1BF3A68D26A09
:1026B000C2F1070282611426426906FB03539A4263
:1026C0002DD100F104084046FEF7F7FC184B48B93D
:1026D000E06A4643AA592AB91A680121814022EAD0
:1026E00001021A603A681968D26AE262012404FAA7
:1026F00002F0084318601420414600FB0250FEF728
:10270000B9FC0120BDE8F0811368406CDC6AA0428E
:102710002CBF00200120BDE8F081BDE8F0813B68BE
:10272000DB6AC362EDE700BF483C0020543C002058
:10273000F43C0020F8B5044608B90020F8BD224B4F
:102740001B68984208D04FF0500383F31188BFF301
:102750006F8FBFF34F8FFEE7836C43B94FF0500389
:1027600083F31188BFF36F8FBFF34F8FFEE7C16A0A
:10277000426C013B91428364DFD0002BDDD1051D0B
:102780002846FEF79AFC114E114A50B9E76A142107
:10279000794373582BB913680120B84023EA00032A
:1027A0001360636CE362C3F10701A1611168012446
:1027B00004FA03F008431060142000FB036029466C
:1027C000FEF758FC2046F8BD483C0020543C002051
:1027D000F43C0020F8B5044600284DD0826C42B984
:1027E0004FF0500383F31188BFF36F8FBFF34F8F08
:1027F000FEE7436C994238BF1946C36A8B423BD00F
:10280000012A39D11D4A1268904208D14FF0500375
:1028100083F31188BFF36F8FBFF34F8FFEE7826999
:10282000174DC162002A4FF014064269A8BFC1F1DA
:10283000070106FB0353A8BF81619A421CD1071D03
:102840003846FEF73AFCE26A0E4C40B95643AB59A3
:102850002BB923680121914023EA010323602168F9
:10286000012393400B4314202360394600FB0250A0
:10287000BDE8F840FEF7FEBBF8BD00BF483C0020B5
:10288000543C0020F43C0020044B1A681AB119682B
:102890008A6C01328A641868704700BF483C002087
:1028A00008B50A20FEF757FBFBE7000008B5134DFB
:1028B000134C2E4602212868FEF758FB20B14FF436
:1028C00000512046FDF771FF1420FEF744FB3068ED
:1028D000FEF796FB20B14FF400512046FDF765FF4F
:1028E000084A1368204601334FF480511360FDF706
:1028F0005CFF0020FEF792FBDCE700BF943D002068
:10290000000C0240843D002008B5154D154C164EB4
:10291000286841F28831FEF729FB20B93068FEF7BC
:1029200071FB032805D04FF400512046FDF73DFF11
:10293000EEE72868FEF764FB20B14FF40051204613
:10294000FDF733FF094A1368204601334FF48041F5
:102950001360FDF72AFF0020FEF760FBD8E700BFF9
:10296000943D0020000C0240803D00208C3D002062
:1029700008B5174C174D184E20680021FEF7F6FADF
:102980000028F9D12868FEF73DFB032805D04FF455
:1029900000511248FDF709FFEEE73068FEF732FB01
:1029A0000328F4D12868FEF73FFB3068FEF73CFBB4
:1029B0002068FEF725FB20B14FF400510748FDF7D2
:1029C000F4FE074A1368013313604FF40041E0E757
:1029D000943D0020803D0020903D0020000C0240EE
:1029E000743D002030B595B03022002108A800F0D9
:1029F000B2F90021142203A800F0ADF900241C4B09
:102A000001941A6C42F080521A641B6C03F08053DC
:102A10000193019B174B02941A6842F480421A609A
:102A20001B680F9403F480430293029B01230B93D2
:102A300010230C9308231093A8230225119308A8B0
:102A40000723139308950E951295FDF7B5FE0F23F6
:102A500003934FF4A053069305214FF4805303A82A
:102A6000049505940793FEF757F815B030BD00BFE5
:102A7000003802400070004080B596B0FDF730FD90
:102A8000FFF7B0FF1422002111A800F064F900251F
:102A90002B4B01951A6B2B482B4C42F008021A6302
:102AA0001B6B03F008032A4601934FF47041019B0E
:102AB000FDF776FE4FF4704311A911932148139549
:102AC000012312931495FDF78BFD16A802AF40F871
:102AD000585DFEF748FA1D4B18600FCC0FC726460D
:102AE000294656F8043B3B6002A8FEF71CFA184B37
:102AF00018600FCE07AF0FC733683B60294607A8A1
:102B0000FEF711FA134B04F1180718600FCF0CAE43
:102B10000FC63B68336029460CA8FEF704FA0E4B3B
:102B20002C3418600FCC11AE0FC6236833602946D1
:102B300011A8FEF7F8F9094B1860FEF7EFF9FEE768
:102B400000380240000C0240802D0008943D002017
:102B50007C3D0020803D0020903D0020883D0020ED
:102B60000368B3F1804F01D1FDF7D4BC704700007A
:102B700013B5134B002400945A6C42F480425A64FB
:102B80005A6C02F480420092009A01941A6C42F04E
:102B900080521A641B6C03F08053019322460F216C
:102BA0006FF00100019BFDF7D9FC05210846224684
:102BB000FDF7D4FC0520FDF705FD02B010BD00BFF8
:102BC0000038024030B5014689B000221C20FDF7D4
:102BD000C5FC1C20FDF7F6FC0025154B02951A6C70
:102BE000144C42F001021A641B6C03F001030293BF
:102BF00001A903A8029BFEF739F8FEF727F84FF06A
:102C00008043236040F2E733E36040000A4BB0FBAF
:102C1000F3F00138606020462561A560FEF762F997
:102C200020B92046FEF741F809B030BD0120FBE78E
:102C300000380240983D002040420F007047FEE7F8
:102C4000FEE7FEE7FEE77047704700000148FEF729
:102C500040B800BF983D00200F49D1F8883043F4B8
:102C60007003C1F888300D4B1A68002042F0010251
:102C70001A6098601A6822F0847222F480321A6016
:102C8000074A5A601A6822F480221A60D8604FF00E
:102C900000638B60704700BF00ED00E00038024029
:102CA00010300024DFF834D0002103E00C4B5B58D7
:102CB000435004310B480C4B42189A42F6D30B4A4E
:102CC00002E0002342F8043B094B9A42F9D3FFF794
:102CD000C3FF00F011F8FFF7CFFE7047000002209D
:102CE0002C2E0008000000200C0000200C0000200A
:102CF000D83D0020FEE7000070B50D4E0D4CA41B22
:102D0000A4100025A54209D10B4E0C4C00F02CF864
:102D1000A41BA4100025A54205D170BD56F825308E
:102D200098470135EEE756F8253098470135F2E728
:102D3000242E0008242E0008242E0008282E000827
:102D400010B5431E0A44914200D110BD11F8014B49
:102D500003F8014FF7E702440346934200D170475E
:102D600003F8011BF9E70000F8B500BFF8BC08BC88
:102D70009E467047F8B500BFF8BC08BC9E46704739
:102D8000F82D0008A1280008FDFF00000000000049
:102D900080000000EE2D0008AD28000802000000B1
:102DA0000000000080000000E42D00080929000850
:102DB000000000000000000080000000DA2D000884
:102DC00071290008FEFF00000000000080000000E4
:102DD000000102030449444C45004C6564303354FF
:102DE00061736B004C656430325461736B004C65E9
:102DF0006430315461736B0064656661756C745442
:102E000061736B0000000000000000000102030479
:0C2E10000607080900000000010203048E
:082E1C00E4D3FF7F0100000078
:042E2400B5010008EC
:042E2800910100080C
:0C2E2C0001000000AAAAAAAA0024F400D9
:0400000508002CA51E
:00000001FF
