:020000040800F2
:1000000000000220913E0008093E00080B3E000857
:100010000D3E00080F3E0008113E000800000000E1
:100020000000000000000000000000008120000827
:10003000133E00080000000011210008752100088F
:10004000E13E0008E13E0008E13E0008E13E000814
:10005000E13E0008153E0008E13E0008E13E0008D0
:10006000E13E0008E13E0008E13E0008E13E0008F4
:10007000E13E0008E13E0008E13E0008E13E0008E4
:10008000E13E0008E13E0008E13E0008E13E0008D4
:10009000E13E0008E13E0008E13E0008E13E0008C4
:1000A000E13E0008E13E0008E13E0008E13E0008B4
:1000B000193E0008E13E0008E13E0008E13E00086C
:1000C000E13E0008E13E0008E13E0008E13E000894
:1000D000E13E0008E13E0008E13E0008E13E000884
:1000E000E13E0008E13E0008E13E0008E13E000874
:1000F000E13E0008E13E0008E13E0008E13E000864
:10010000E13E0008E13E0008E13E0008E13E000853
:10011000E13E0008E13E0008E13E0008E13E000843
:10012000E13E0008E13E0008E13E0008E13E000833
:10013000E13E0008E13E0008E13E0008E13E000823
:10014000E13E0008E13E0008E13E0008E13E000813
:10015000E13E0008E13E0008E13E0008E13E000803
:10016000E13E0008E13E0008E13E0008E13E0008F3
:10017000E13E0008E13E0008E13E0008000000000A
:08018000E13E0008E13E000829
:1001900010B5054C237833B9044B13B10448AFF3C1
:1001A00000800123237010BD00010020000000002A
:1001B000F43F000808B5034B1BB103490348AFF3F4
:1001C000008008BD0000000004010020F43F00088A
:1001D00053B94AB9002908BF00281CBF4FF0FF31AE
:1001E0004FF0FF3001F0F6B8ADF1080C6DE904CE28
:1001F00000F006F8DDF804E0DDE9022304B0704702
:100200002DE9F0478C460D460446089E002B51D13F
:100210008A4217466DD9B2FA82FEBEF1000F0BD0AA
:10022000CEF1200C01FA0EF520FA0CFC02FA0EF7C2
:100230004CEA050C00FA0EF44FEA174A250CBCFBF9
:10024000FAF81FFA87F90AFB18CC45EA0C4508FBB7
:1002500009F3AB420AD9ED1908F1FF3280F023818E
:10026000AB4240F22081A8F102083D44ED1AA4B24D
:10027000B5FBFAF00AFB105544EA054400FB09F906
:10028000A14509D9E41900F1FF3380F00A81A145A5
:1002900040F2078102383C44A4EB090440EA0840DC
:1002A0000021002E61D024FA0EF400233460736024
:1002B000BDE8F0878B4207D9002E54D0002186E894
:1002C00021000846BDE8F087B3FA83F1002940F029
:1002D0008E80AB4202D3824200F2FA80841A65EB30
:1002E00003050120AC46002E3FD086E81010BDE883
:1002F000F08712B90127B7FBF2F7B7FA87FEBEF114
:10030000000F34D1EB1B3A0C1FFA87FC0121B3FB21
:10031000F2F8250C02FB183345EA03450CFB08F301
:10032000AB4207D9ED1908F1FF3002D2AB4200F21F
:10033000D1808046ED1AA3B2B5FBF2F002FB105556
:1003400043EA05440CFB00FCA44507D9E41900F17D
:10035000FF3302D2A44500F2B8801846A4EB0C0487
:1003600040EA08409DE731463046BDE8F087CEF1CF
:10037000200405FA0EF307FA0EF720FA04F83A0CF7
:1003800025FA04F448EA0308B4FBF2F14FEA1845F1
:1003900002FB11441FFA87FC45EA044501FB0CF3FC
:1003A000AB4200FA0EF409D9ED1901F1FF3080F0EB
:1003B0008A80AB4240F2878002393D44EB1A1FFA33
:1003C00088F5B3FBF2F002FB103345EA034500FB6E
:1003D0000CF3AB4207D9ED1900F1FF386FD2AB42F5
:1003E0006DD902383D44EB1A40EA01418FE7C1F173
:1003F000200722FA07F88B4005FA01F448EA0303C4
:1004000020FA07FE4FEA134CFD404EEA040EB5FBFE
:10041000FCF94FEA1E440CFB19551FFA83F844EA15
:10042000054509FB08F4AC4202FA01F200FA01FAB0
:1004300008D9ED1809F1FF3043D2AC4241D9A9F1F6
:1004400002091D442D1B1FFA8EFEB5FBFCF00CFBB0
:1004500010554EEA054400FB08F8A04507D9E418FA
:1004600000F1FF3529D2A04527D902381C4440EAC3
:100470000940A4EB0804A0FB02894C45C6464D4642
:1004800015D312D056B1BAEB0E0364EB050404FA8F
:1004900007F7CB401F43CC40376074600021BDE8B4
:1004A000F0871846F8E69046E0E6C245EAD2B8EB97
:1004B000020E69EB03050138E4E72846D7E740461A
:1004C00091E78146BEE7014678E702383C4445E7BC
:1004D000084608E7A8F102083D442BE703685A00E4
:1004E0004CBF43F0004323F000431844704700BF63
:1004F00061B32DE9F84F01F1FF3A90460646D14627
:10050000002707EB090404EBD4746410E5007119AB
:100510000846FFF7E3FFA245834605F10800304493
:1005200009D0FFF7DBFFC34500F1FF3005D8404598
:1005300009D2671CE5E7C34505D9A74202D004F1FB
:10054000FF39DEE700210846BDE8F88F084670470E
:10055000012807D0022807D0044B00280CBF1846FA
:10056000002070470248704702487047550C000849
:10057000590C00085D0C000830B5244B83B00446CC
:100580008D1E7BB301A92846AFF3008020B30199EB
:100590002A46FFF7ADFF0146F0B1FFF79FFF4B681A
:1005A000A064012B12D0002B01F1040020DBFFF727
:1005B00095FF0023E06423650368002B1CDBFFF735
:1005C0008DFF00232061184603B030BD0023236156
:1005D0000523184603B030BD0023236109231846C4
:1005E00003B030BD0A490B48091AC9100191CFE781
:1005F0000123E0642365DFE7C3F30360FFF7A8FF8F
:100600000028206114BF00230923DCE7000000005C
:100610003C420008344100080368DA0710B504467C
:1006200006D49B0700F1480009D500F051FC23686F
:10063000590709D51A070ED5DB0613D510BD00F0F2
:100640003FFC23685907F5D404F1D00000F048FCC2
:1006500023681A07F0D404F5A87000F049FC236859
:10066000DB06EBD404F5E870BDE8104000F084BC74
:10067000036803B103441846704700BF0920704760
:10068000704700BF70B504460D4608E02B6C6361EF
:100690002A462369214601209847082808D1296C59
:1006A0002046FFF769FF06460028EFD003F057FC0D
:1006B0000728FBD13046296CFFF7E2FF281D00F028
:1006C000F3FB00BF2DE9F0470C1D054692460FCC09
:1006D000ADF5727D03AE0FC60FCC0FC60FCC0FC6A3
:1006E00094E80F0002ACD5F80C80D5F8189086E895
:1006F0000F0000232846216C2360FFF73DFFBAF16D
:10070000000F074614BF0A2609267FB1A36B46F0E7
:1007100010018DE810022A46636401202B46C04771
:1007200078BB38460DF5727DBDE8F087236C6B61B0
:100730004FF4F07221467AA803F0FEFB2B697AAAE7
:10074000294630469847889B82468DE810023146FC
:1007500063642A462B460120C04790B94FF4F072DB
:100760007AA9204603F0E8FBBAF1080F06D1216C04
:100770002846FFF701FF09260746C6E7BAF1070F2B
:1007800005D0092738460DF5727DBDE8F08738465B
:10079000216CFFF775FF03A800F086FB406C7047E3
:1007A000F0B5CB6B0B640E1D0F4604460FCEF9B0AF
:1007B00001AD0FC50FCE0FC50FCE0FC596E80F00C8
:1007C0004FF0FF3685E80F00009606E023696A4681
:1007D000214698470828054608D110992046FFF77A
:1007E000CBFE0028F2D0092079B0F0BD6846FFF7B3
:1007F00013FF062DF7D139462046FFF743FF00BF10
:1008000030B4DD6BC160826119461D64002230BCCA
:1008100058E700BF70B5C66843690B6426B1012272
:10082000FFF750FF03F09BFB03690A4604460D46A1
:10083000014602209847072807D0082803D12946F7
:100840002046FFF71FFF03F08AFB3046296CFFF7B5
:1008500017FF281D00F028FBC2681AB1CA6B0A6492
:1008600000222FE79CE700BF704700BF836813B1E9
:10087000014601201847704700B5042907D8DFE872
:1008800001F00309060909000BB90F2A05D9022056
:100890005DF804FB01205DF804FB00EB82021846C2
:1008A0005368019A13605DF804FB00BF10B584B073
:1008B000002303AC0A4600941946FFF7DDFF0398B6
:1008C00004B010BD00B5042907D8DFE801F0030922
:1008D000060909000BB90F2A05D902205DF804FBAF
:1008E00001205DF804FB019900EB82020968516068
:1008F00018465DF804FB00BF10B584B004AC0023BB
:1009000044F8042D0A4600941946FFF7DBFF04B0B3
:1009100010BD00BFF0B5D36B1364151D07460E461E
:100920000FCDADF50F7D17AC0FC40FCD0FC40FCD9C
:100930000FC495E80F004FF0FF3584E80F001695BF
:1009400010E016A8FFF7D8FF314616A8B84716AA38
:10095000694678B9049B08209847052804460AD0C0
:10096000092807D026996846FFF706FE6A460C213B
:100970000028E6D0092416A8FFF74EFE20460DF504
:100980000F7DF0BD2DE9F04F0D46C96C8BB00C1DED
:10099000096807919146089400F0030B1E46002B4E
:1009A00060D10902032307918DF825608DF824306A
:1009B0002B6DBBF1020F08BFAC6B13F0010340D1EC
:1009C000019300F008030393D4F80080B8F1000FFE
:1009D00039D0022E43D0B4F8008067880434AB6C61
:1009E00027F0010A0F2148469A44FFF75FFF82452E
:1009F00033D828F001039A4450452CBF0020012031
:100A00007F0007F0020708F0010847EA0807012FF6
:100A10003ED035D3022F1CD1236823F0004202922E
:100A2000BBF1000F76D128B1039900297ED0002AAE
:100A300000F0A680002B77DB029B013304EB8304DC
:100A4000C2E700230193022E3EDDFFF717FE0028C8
:100A500040D009200BB0BDE8F08F0020D0E76768D8
:100A60000834BCE7022BA3DC0B0CDAB209048DF8C6
:100A70002530022304EB820407918DF8243097E798
:100A8000BBF1000F02D0002840F0BD8004349BE78A
:100A9000BBF1000F25D1A8B194E80C00991C4FEAD6
:100AA000D272D6D005F158010133069100F0A3802F
:100AB000201DFFF7DDFD06AB01462846AFF30080A1
:100AC000002877D108347FE707A9484600F0EEFAFE
:100AD0000028BED1019B002B5CD108200BB0BDE8E3
:100AE000F08F0D2148462F6AFFF7E0FE8742E9D1DB
:100AF000AB6A9C42E6D12046FFF7F0FC0F2102468C
:100B00004846FFF7F9FE48462A460021FFF7F4FE63
:100B100007209FE70D2148462F6AFFF7C7FE87424F
:100B200058D02368002B87DA043485E7029B3BB357
:100B300005F15803271DCDF810B0DDF80C80DDF865
:100B400008A00596A3461C4602E0B245B04616D062
:100B500038460694FFF78CFD06AB01460022284676
:100B6000AFF3008008F1010604370028EDD0029BA6
:100B7000059E43455C46DDF810B0D2D100E05C46EE
:100B800048460D21FFF792FE069B2862AC626B621D
:100B900006205FE70F214846FFF788FE0E21024638
:100BA0004846FFF7A9FE4846294A0F21FFF7A4FE51
:100BB00007204FE707460D214846FFF777FE022F33
:100BC00028621DD12B46069A43F82C2F6B62AC622B
:100BD00006203FE7AB6A9C42A3D104220027A3185A
:100BE0000299A962EF622A636B632368BB421DDB33
:100BF0000123019320E748460D21FFF757FE2862A5
:100C0000069B6B62E3E72046FFF768FC0434064668
:100C1000AC632846AFF3008000283FF41AAF484683
:100C200032460F21FFF768FE072013E70846013020
:100C300004EB8000FFF752FC0F2102464846FFF705
:100C40005BFE48462A463946FFF756FE072001E775
:100C500000000000002395E6012393E6022391E6BD
:100C6000F0B50446C5B004290DD8DFE801F0530300
:100C70000C310F00012B4FEA124695B262D1721966
:100C8000102A40F29B80022045B0F0BD002BFAD123
:100C9000102AF8D82368D80600F1C68022AE304664
:100CA000019200F073F9A06B019A0023012505FA67
:100CB00003F1114203D0016846F8231004300133D8
:100CC000042BF4D1A063304600F056F90020DBE796
:100CD000032BD8D1150C97B2EB19102BD3D823685E
:100CE0001E0700F1B58022AE304600F023F9ED007A
:100CF000A36B4FB1043D711903EBC70053F8042BEC
:100D000041F8042F8342F9D13046A36300F0F0F894
:100D10000020B9E7002BB6D1A56B97B2201D0126A4
:100D200006FA03F1394203F1010302D02968016098
:100D30000435102B00F10400F2D112F400503BD125
:100D4000A563A1E7052B9ED17719202F9BD80F2EE5
:100D500066D92F46002D3AD12A460027002AA06BDB
:100D600072DD00EBC202014644A800EBC6008C38DD
:100D700051F8045B40F8045F9142F9D1084697B1FD
:100D8000102E324644A938BF102201EBC202A2F550
:100D9000C4727900043A00EB810150F8045B42F818
:100DA000045F8842F9D1012B48D00F2EA16333D9BB
:100DB00017B102A800F094F8002065E70F2E3FF667
:100DC00062AF00272268D10717D4002F60D02268B5
:100DD000510745D4012B4DD00F2E06D822A80193E0
:100DE00000F07AF8019B002FB6D002A8019300F022
:100DF0007BF8019BC6F11002B0E722F00101052B40
:100E00002160019320463BD022F0030240F8482B9A
:100E100000F05AF8019BD8E722A800F059F8C7E77C
:100E2000102FCED9103FCDE723F01003236004F537
:100E3000E870019200F0AAF8019A2FE70431A1634B
:100E400022A800F03DF8B7E7002F99D10146AAE7A4
:100E500023F00803236004F5A87000F06BF842E764
:100E6000204622F0040240F8D02B019300F03CF819
:100E7000019BAFE722A8019300F026F8019BB9E798
:100E800041F0020140F8481B00F026F8019B9CE766
:100E9000012B03D00F2E3FF65FAF9FE722A80193EF
:100EA00000F012F8019B57E700F1340191E8380097
:100EB0009C46A6464CF8045D90E8FF0FE54600BD51
:100EC00090EC210B704700BF80EC210B704700BFF6
:100ED00090EC200B704700BF80EC200B704700BFE8
:100EE000D0EC200B704700BFC0EC200B704700BF58
:100EF000F0EC0201F0EC0211F0EC0221F0EC023116
:100F0000F0EC0241F0EC0251F0EC0261F0EC027105
:100F1000F0EC0281F0EC0291F0EC02A1F0EC02B1F5
:100F2000F0EC02C1F0EC02D1F0EC02E1F0EC02F1E5
:100F3000704700BFE0EC0201E0EC0211E0EC02219E
:100F4000E0EC0231E0EC0241E0EC0251E0EC026145
:100F5000E0EC0271E0EC0281E0EC0291E0EC02A135
:100F6000E0EC02B1E0EC02C1E0EC02D1E0EC02E125
:100F7000E0EC02F1704700BFB0FC0181B0FC0191D0
:100F8000B0FC01A1B0FC01B1704700BFA0FC018121
:100F9000A0FC0191A0FC01A1A0FC01B1704700BF21
:100FA000EC4600B52DE900502DE9FF1F4FF000037E
:100FB0002DE90C0001A9FFF7F3FBDDF840E012B0CA
:100FC000704700BFEC4600B52DE900502DE9FF1F2A
:100FD0004FF000032DE90C0001A9FFF71BFCDDF821
:100FE00040E012B0704700BFEC4600B52DE900505C
:100FF0002DE9FF1F4FF000032DE90C0001A9FFF7B9
:101000002BFCDDF840E012B0704700BFEC4600B5A5
:101010002DE900502DE9FF1F4FF000032DE90C00D2
:1010200001ABFFF7EDFBDDF840E012B0704700BF09
:10103000EC4600B52DE900502DE9FF1F4FF00003ED
:101040002DE90C0001AAFFF765FCDDF840E012B0C5
:10105000704700BF027A1AB9437A43B9B02070478B
:101060000368013A02721A020260180E7047426861
:10107000013B10B4437213680321141D01721A025C
:10108000446002605DF8044B180E704700B585B0EF
:1010900003AA0023009219460C22FFF7EDFB0398E8
:1010A00005B05DF804FB00BFF0E700BF2DE9F04399
:1010B000064685B00F464FF000083846FFF7CAFFD6
:1010C000B028044623D0050627D400230DF10C09CF
:1010D000194685000D22CDF800903046FFF7CCFB75
:1010E000EDB2039BCDF80090600605F104054CBFFE
:1010F0005D1BED18002319460D2230460395FFF7BE
:10110000E1FB3846FFF7A6FFB0280446DBD1B8F173
:10111000000F00F0958000201CE000F0F003802B11
:101120005DD0902B19D0A02B2CD0B02B3FD0C02B52
:101130006CD000F0F803D02B0BD100F00702013285
:1011400042F40022052301213046FFF789FD0028E3
:10115000B3D0092005B0BDE8F08300F00D030D2BDE
:10116000F7D003AD002300F00F021946009530467A
:10117000FFF782FB0023009519460D223046FFF74A
:10118000A1FB9AE7C24302F007034FF47F621A41C2
:10119000010702F47F624FF0000348BF42F480422F
:1011A00019463046FFF75CFD0028D2D185E7B1280B
:1011B00057D0B22868D0B32800F0958000F0FC0327
:1011C000B42BC6D000F007020132012342F4002202
:1011D00019463046FFF744FD0028BAD16DE738467E
:1011E000FFF738FF24020443B4F5004FB1D02401C7
:1011F0000023A2B219463046FFF732FD0028A8D1DD
:1012000014F4004F18BF4FF0010856E7C6287DD0F0
:10121000C72800F0868000F0F803C02B00F094800F
:10122000C82800F09F80C92893D13846FFF712FFE5
:10123000020300F00F0002F470220130024381E744
:1012400003AC43460E22414600943046FFF714FBA0
:101250000094304643460F224146FFF733FB404699
:1012600078E73846FFF7F6FE00283FF472AF10F03B
:10127000F0037FF46EAF024619463046FFF7F0FCEC
:1012800000287FF466AF18E700230DF10C090D224A
:101290001946CDF800903046FFF7EEFA3846FFF7D2
:1012A000D9FE02064FF002040CD5039B00F07F002C
:1012B000A040034438460393FFF7CCFE030604F135
:1012C0000704F2D4039BCDF8009000F07F02A24007
:1012D00003F501740023144419460D22304603948B
:1012E000FFF7F0FAE9E63846FFF7B4FE010300F035
:1012F0000F0001F47021421C01230A4330461946B5
:10130000FFF7AEFC00287FF424AFD6E63846FFF79F
:10131000A1FE010300F00F0001F47021421C032321
:10132000EBE73846FFF796FE00283FF412AF10F0C7
:10133000F0037FF40EAF024604213046FFF790FC25
:1013400000287FF406AFB8E600F00F020132032355
:1013500042F4202219463046FFF782FC00287FF431
:10136000F8AEAAE63846FFF775FE00F0F00200F08E
:101370000F031032013343EA0232E3E610B5C36CC7
:1013800084B05A6803208DF80C00DC798DF80D408C
:1013900012020833084601A901920293FFF786FE64
:1013A00004B010BD08B5FFF77FFE806C08BD00BF1C
:1013B00008B5FFF779FEC06CC37900EB83000830F5
:1013C00008BD00BF08B502F0CAFD00BF08B5FFF7B1
:1013D000F9FF00BF704700BF08B50B4B1A6842F415
:1013E00000721A601A6842F480621A601A6842F445
:1013F00080721A60032000F01BF8002002F0C8FC85
:1014000002F09CFC002008BD003C0240034A044B53
:1014100011681B780B441360704700BF903E00209A
:1014200000000020014B1868704700BF903E00206C
:10143000074AD36823F4E0631B041B0C43F0BF632B
:10144000000243F4003300F4E0600343D3607047CC
:1014500000ED00E0174B30B5DC68C4F30224C4F1A2
:101460000703251D042B28BF0423062D4FF001057B
:1014700005FA03F303F1FF338CBF033C002419404A
:10148000A14005FA04F4013C2240002842EA01028E
:101490004FEA0212ADBF00F1604000F00F00064BB2
:1014A00000F56140B5BFD2B2D2B21A5480F8002321
:1014B00030BD00BF00ED00E014ED00E0002808DBC7
:1014C0004209012300F01F0003FA00F0014B43F82A
:1014D0002200704700E100E02DE9F04F85B00B6875
:1014E000DFF8AC81684ADFF8AC91019300234FF03C
:1014F000010E019C0EFA03FE0EEA0406B64540F00A
:10150000AE804C6824F01007022F16D14FEAD30AA0
:1015100000EB8A0A03F0070BDAF820504FEA8B0B36
:101520004FF00F0C0CFA0BFC25EA0C0C0D6905FAB8
:101530000BF545EA0C05CAF820504FEA430A03258B
:10154000D0F800B005FA0AF5ED4304F0030C0BEAFD
:10155000050B0CFA0AFC013F4CEA0B0C012FC0F8FA
:1015600000C011D8876807EA050BCF6807FA0AFCA4
:101570004CEA0B078760476827EA0E0EC4F3001792
:101580009F4047EA0E074760C7683D408F6807FAEB
:101590000AF73D43C560E50061D54FF0000BCDF87B
:1015A0000CB0D8F84470394D47F48047C8F84470FF
:1015B000D8F8447007F480470397039F23F003078C
:1015C00007F1804707F59C3703F0030CD7F808A014
:1015D0004FEA8C0C4FF00F0E0EFA0CFEA8422AEACE
:1015E0000E0E43D005F58065A84241D005F5806513
:1015F000A8423FD005F58065A8423DD005F580653D
:10160000A8423BD048453BD005F50065A84239D0FB
:1016100005F58065A84214BF0825072505FA0CF5D5
:1016200045EA0E05BD601568F74314F4803F0CBF12
:101630003D4035431560556814F4003F0CBF3D40F4
:1016400035435560956814F4801F0CBF3D40354309
:101650009560D568A40254BF3D403543D560013341
:10166000102B7FF444AF05B0BDE8F08F5D46D5E7A1
:101670000125D3E70225D1E70325CFE70425CDE7F0
:101680000525CBE70625C9E7003C014000000240E4
:1016900000380240001402400AB181617047090419
:1016A000FBE7436931EA030308BF0904816170471E
:1016B0002DE9F341044618B9012002B0BDE8F081DC
:1016C0000368DD0710D42368980758D423681A07E5
:1016D00000F19A8023685B0700F1B880A269002AB4
:1016E00040F019810020E8E7A64B9A6802F00C024E
:1016F000042A07D09A6802F00C02082A0AD15B6813
:10170000590207D59F4B1B689A03DCD56368002BF1
:10171000D9D1D1E763689B4DB3F5803F11D12B68D8
:1017200043F480332B60FFF77DFE964D06462B6811
:101730009B03C8D4FFF776FE801B6428F7D90320EB
:10174000BBE7B3F5A02F04D12B6843F480232B60B3
:10175000E5E72A6822F480322A602A6822F480228F
:101760002A60002BDFD1FFF75DFE06462B689F0342
:10177000A9D5FFF757FE801B6428F7D9DFE7814B17
:101780009A6812F00C0F07D09A6802F00C02082A2F
:1017900011D15B685E020ED47A4B1A68950702D5A8
:1017A000E268012A88D11A68216922F0F80242EA27
:1017B000C1021A608AE7E268734BB2B101221A6073
:1017C000FFF730FE6F4D06462B68980707D52B684C
:1017D000226923F0F80343EAC2032B6076E7FFF7A0
:1017E00021FE801B0228EFD9A9E71A60FFF71AFE35
:1017F000644D06462B6899077FF568AFFFF712FE28
:10180000801B0228F6D99AE76269604B7AB10122FF
:101810001A60FFF707FE5B4D06466B6F9F073FF5AB
:1018200059AFFFF7FFFD801B0228F6D987E71A6042
:10183000FFF7F8FD534D06466B6F98077FF54AAFEB
:10184000FFF7F0FD801B0228F6D978E74D4B1A6CA4
:1018500012F0805228D101921A6C42F080521A6420
:101860001B6C03F080530193019B0126484D2B68AC
:10187000D9051BD5A368434D012B27D12B6F43F00E
:1018800001032B67FFF7CEFD3E4D074641F2883836
:101890002B6F9B0739D5002E3FF420AF394A136CCC
:1018A00023F08053136419E70026DFE72B6843F425
:1018B00080732B60FFF7B6FD07462B68DA05D9D495
:1018C000FFF7B0FDC01B0228F7D938E7052B04D17C
:1018D0002B6F43F004032B67D0E72A6F22F001023D
:1018E0002A672A6F22F004022A67002BCAD1FFF769
:1018F00099FD41F2883807462B6F9807CBD5FFF743
:1019000091FDC01B4045F7D919E7FFF78BFDC01BC0
:101910004045BDD913E71B4DAB6803F00C03082B02
:101920003FF4CAAE1B4E0023022A336034D1FFF7C6
:1019300079FD07462B6899011ED4226AE369134397
:10194000626A43EA8213E26A43EA0263A26A0D4CC6
:101950005208013A43EA02436B6001233360FFF708
:1019600061FD054623689A013FF5BCAEFFF75AFDBD
:10197000401B0228F6D9E2E6FFF754FDC01B0228FF
:10198000D8D9DCE60038024000004742800E4742CA
:101990000070004060004742FFF744FD04462B689A
:1019A0009B017FF59FAEFFF73DFD001B0228F6D996
:1019B000C5E600BF134908B58B6803F00C03042B80
:1019C00003D0082B03D0104808BD104808BD4A6852
:1019D0004B68496813F4800314BF0C480A48C1F3EC
:1019E000881118BF002302F03F02A1FB0001FEF79F
:1019F000EFFB044B5B68C3F3014301335B00B0FBB7
:101A0000F3F008BD003802400024F40000127A0010
:101A10002DE9F0410D46044610B90120BDE8F081E2
:101A2000444B1A6802F00F028A4228D321688F07BC
:101A30002DD4C80740D43F4B1A6802F00F029542DC
:101A400066D3226851076CD4130707D53A4A216937
:101A5000936823F4604343EAC1039360FFF7AAFF4E
:101A6000354B364A9B68C3F30313D35CD840344BE1
:101A70001860002002F08CF90020BDE8F081CAB2A5
:101A80001A701B6803F00F039942C6D1CEE72A4BA8
:101A900011F0040F1EBF9A6842F4E0529A600E07DC
:101AA00042BF9A6842F460429A609A68A06822F045
:101AB000F00202439A60BCE762681F4B012A1DD105
:101AC0001B6813F4003FA8D01B4EB36823F0030338
:101AD0001343B360FFF7A6FC41F288380746B368AA
:101AE000626803F00C03B3EB820FA4D0FFF79AFCFB
:101AF000C01B4045F3D90320BDE8F081911E0129A8
:101B00001B6802D813F0007FDDE713F0020FDAE75D
:101B1000EAB21A701B6803F00F039D427FF47DAF99
:101B20008FE70549E0688B6823F4E05303438B603B
:101B30008AE700BF003C024000380240964000089F
:101B400008000020044B054A9B68C3F38223D35C42
:101B5000034A1068D840704700380240A640000889
:101B6000080000200F2303600B4B9A6802F0030269
:101B700042609A6802F0F00282609A6802F4E052D1
:101B8000C2609B68DB0803F4E0530361034B1B68EE
:101B900003F00F030B60704700380240003C024026
:101BA00070470368DA6842F00102DA609A6802F06E
:101BB0000702062A1EBF1A6842F001021A600020BE
:101BC0007047704770477047704703681A699107FC
:101BD00010B504460ED5DA6892070BD56FF00202F5
:101BE0001A619B6901229B07027777D0FFF7EAFF12
:101BF0000023237723681A69500710D5DA68510744
:101C00000DD56FF004021A619B69022213F4407F24
:101C10002277204668D0FFF7D5FF0023237723687B
:101C20001A6912070FD5DA6810070CD56FF0080291
:101C30001A61DB6904229907227720465AD0FFF700
:101C4000C1FF0023237723681A69D20610D5DA680A
:101C5000D0060DD56FF010021A61DB69082213F46B
:101C6000407F227720464BD0FFF7ACFF002323773D
:101C700023681A69D10708D5DA68D20705D56FF04D
:101C800001021A61204602F021F823681A69100641
:101C900008D5DA68110605D56FF080021A61204672
:101CA00000F0B7F823681A69520608D5DA685006BA
:101CB00005D56FF040021A612046FFF785FF2368C3
:101CC0001A69910622D5DA6892061FD56FF02002B4
:101CD00020461A61BDE8104000F09AB8FFF771FF86
:101CE0002046FFF770FF83E7FFF76BFF2046FFF703
:101CF0006AFF92E7FFF765FF2046FFF764FFA0E762
:101D0000FFF75FFF2046FFF75EFFAFE710BD000063
:101D1000304A0368904212D0B0F1804F0FD0A2F544
:101D20007C4290420BD002F58062904207D002F5CF
:101D30008062904203D002F57842904219D14A68FD
:101D400023F070031343234A904229D0B0F1804F0F
:101D500026D0A2F57C42904222D002F580629042C9
:101D60001ED002F5806290421AD002F5784290426D
:101D700016D0194A904213D002F5806290420FD0DB
:101D800002F5806290420BD0A2F59832904207D0C3
:101D900002F58062904203D002F58062904203D146
:101DA000CA6823F4407313434A6923F08003134342
:101DB00003608B68C3620B688362064B984203D052
:101DC00003F58063984201D10B69036301234361EA
:101DD000704700BF000001400040014010B50446BC
:101DE000A0B190F83D3003F0FF021BB980F83C2011
:101DF000FFF7D6FE022384F83D302068211DFFF74F
:101E000087FF012384F83D30002010BD012010BD64
:101E10007047704708B501F0DFF8002008BD30B505
:101E2000B0F90840028A0B4690E8220085B0842C65
:101E300014BF0334002403A801900094284600F046
:101E40002BFF01280CBF0398002005B030BD08B55A
:101E5000002808BF012001F00DFA002008BD012074
:101E600000F0FABC13B500240194E0B1EFF3058350
:101E7000A3B101AA214600F015FE012802D0FF20DF
:101E800002B010BD019B3BB1084B4FF080521A606D
:101E9000BFF34F8FBFF36F8F0020F1E700F042FDDB
:101EA0000128ECD1F8E78020EAE700BF04ED00E06C
:101EB00013B500240194EFF3058393B101A900F059
:101EC000DDFC012813D1019B13B9002002B010BD25
:101ED000084B4FF080521A60BFF34F8FBFF36F8FE4
:101EE000F3E71A46194600F001FC0128EDD0FF2067
:101EF000ECE700BF04ED00E0FFF7DABF08B500F043
:101F00009BFF04289ABF024B185C6FF0004008BD8D
:101F10008C40000808B501F00BFA002008BD000055
:101F200008B5EFF305836BB101F006F8012807D17E
:101F3000064B4FF080521A60BFF34F8FBFF36F8F85
:101F4000002008BD00F0B6FFFAE700BF04ED00E096
:101F500000F1080343604FF0FF32C36003610023C8
:101F600082600360704700230361704743684B60E1
:101F70009A688A609A6851609960036808610133C1
:101F8000036070470A68531C30B50AD103695A6868
:101F90004A6091608B605960036808610133036097
:101FA00030BD00F108035C682568AA42EFD32346E0
:101FB000F9E74168826803698A60826851605968FC
:101FC000884208BF5A60002202611A68013A1A600A
:101FD0001868704782B0002301930D4B1B680133D2
:101FE00008D04FF0500383F31188BFF36F8FBFF316
:101FF0004F8FFEE74FF0500383F31188BFF36F8FCD
:10200000BFF34F8F019B002BFCD002B0704700BF85
:102010000400002008480068006880F308884FF03A
:10202000000080F3148862B661B6BFF34F8FBFF330
:102030006F8F00DF00BF000008ED00E0DFF80C004C
:10204000016841F4700101607047000088ED00E014
:102050004FF0807340F8043C074B40F80C3C21F0F3
:1020600001016FF0020340F8081C40F8202C40F8F2
:10207000243C4438704700BFD51F00080000000012
:10208000074B19680868B0E8F04F80F30988BFF380
:102090006F8F4FF0000080F311887047AFF300801E
:1020A000643D00204FF0500383F31188BFF36F8F1E
:1020B000BFF34F8F0A4A13680133012B13600DD110
:1020C000084B1B6813F0FF0F08D04FF0500383F349
:1020D0001188BFF36F8FBFF34F8FFEE7704700BFCC
:1020E0000400002004ED00E0084A136843B94FF0F3
:1020F000500383F31188BFF36F8FBFF34F8FFEE759
:10210000013B13600BB983F3118870470400002072
:10211000EFF30980BFF36F8F154B1A681EF0100F95
:1021200008BF20ED108A20E9F04F10602DE909006A
:102130004FF0500080F31188BFF34F8FBFF36F8FC4
:1021400001F0BCF84FF0000080F3118809BC196859
:102150000868B0E8F04F1EF0100F08BFB0EC108A0E
:1021600080F30988BFF36F8F704700BFAFF3008023
:10217000643D002008B54FF0500383F31188BFF38E
:102180006F8FBFF34F8F00F06BFF18B1034B4FF011
:1021900080521A60002383F3118808BD04ED00E02B
:1021A000084A0949002313600B60084B4FF47A7109
:1021B0001B68B3FBF1F30649013B0B600723136077
:1021C000704700BF10E000E018E000E008000020C9
:1021D00014E000E0394B3A4A13B51968914208D12E
:1021E0004FF0500383F31188BFF36F8FBFF34F8F0E
:1021F000FEE71A68334B9A4208D14FF0500383F33D
:102200001188BFF36F8FBFF34F8FFEE72E4B1A7805
:10221000D2B20192FF221A701B782C4ADBB28DF8E1
:1022200003309DF8033003F050031370284B07224E
:102230001A6000219DF80300000602F1FF340DD45E
:1022400001B11A601A68032A11D04FF0500383F3CA
:102250001188BFF36F8FBFF34F8FFEE79DF8032008
:102260005200D2B28DF8032001212246E2E7120289
:1022700002F4E0621A60019B134ADBB21370154B43
:102280001A6842F470021A601A6842F070421A60CA
:10229000FFF786FF104B00241C60FFF7CFFE0F4AAC
:1022A000136843F040431360FFF7B4FE01F006F8F3
:1022B000FFF790FE204602B010BD00BF00ED00E029
:1022C00071C20F4170C20F4100E400E044010020E0
:1022D0004801002020ED00E00400002034EF00E081
:1022E000EFF305830F2B0ED9104A9B5C104A12782E
:1022F0009A4208D94FF0500383F31188BFF36F8FD0
:10230000BFF34F8FFEE70B4B0B4A1B68126803F4B9
:10231000E063934208D94FF0500383F31188BFF371
:102320006F8FBFF34F8FFEE7704700BFF0E300E011
:10233000440100200CED00E04801002010B50F4BD7
:102340001A68824218D35C681919884201BF416833
:10235000184609195960446801198A4207D1084989
:1023600009688A421FBF5168126809194160984282
:10237000026018BF186010BD1346E1E75C3D002005
:102380004C0100202DE9F041044600F061FE3E4979
:102390003E4D0B680BBB3E4A56071FBFD01D20F0B9
:1023A000070002F570531B1A14BF02464FF4705316
:1023B0001344083B23F00703364E0B600020706087
:1023C000326058601860981A1360334B5060186080
:1023D000324B18604FF000432B602F68274216D114
:1023E000002C41D004F1080358071CBF23F0070359
:1023F000083363B1294A1668B342904607D8254A84
:1024000015686868834204D809688D4207D10024A2
:102410002AE02C68002CF7D02A462546F1E72968E7
:1024200014681160C21A102A0FD9E818410708D0A1
:102430004FF0500383F31188BFF36F8FBFF34F8FBB
:10244000FEE742606B60FFF779FF13496B6808682D
:10245000F61A1F4386424FF00003C8F8006038BFE9
:102460000E6008346F602B6000F08CFE630708D0AC
:102470004FF0500383F31188BFF36F8FBFF34F8F7B
:10248000FEE72046BDE8F0814C010020503D0020D1
:10249000500100205C3D0020583D0020543D0020AC
:1024A00010B5044670B3184A50F8043C1268134241
:1024B00008D14FF0500383F31188BFF36F8FBFF340
:1024C0004F8FFEE750F8081C41B14FF0500383F3E3
:1024D0001188BFF36F8FBFF34F8FFEE723EA02032C
:1024E00040F8043C00F0B4FD084A54F8043C11687C
:1024F000A4F108000B441360FFF720FFBDE8104073
:1025000000F040BE10BD00BF503D0020543D0020F3
:1025100010B50446FFF7C6FDA46BFFF7E5FDB4FA5E
:1025200084F0400910BD70B51546026C866B0446F8
:1025300042B905689DB9406801F074F865600136DC
:10254000A66370BD6DB9806801F0F6FCA368226CCB
:1025500013446268A360934201D32368A360002000
:10256000EDE7C06801F0E8FC236CE26821685B429B
:102570001A448A42E2603EBF62689B18E360022D03
:10258000EDD10EB1013EEAE73046D8E7034610B47C
:102590001A6C084662B1D9685C681144A142D960DE
:1025A00024BF1968D960D9685DF8044B01F0C4BC38
:1025B0005DF8044B704770B50446FFF773FD94F85F
:1025C000455004F124066DB2002D14DCFF2384F87D
:1025D0004530FFF789FDFFF765FD94F8445004F19D
:1025E00010066DB2002D12DCFF2384F84430BDE8E4
:1025F0007040FFF779BD636A002BE7D0304600F0EA
:102600001DFF08B100F0A4FF013D6DB2DCE72369B6
:10261000002BE9D0304600F011FF08B100F098FF20
:10262000013D6DB2DEE7000038B50D46044640B905
:102630004FF0500383F31188BFF36F8FBFF34F8FB9
:10264000FEE7FFF72FFD206CE36B2268A260434397
:10265000D1181B1A13446160E3600021FF23A163BA
:1026600084F8443084F8453095B9236963B104F1A6
:10267000100000F0E3FE38B10A4B4FF080521A60B0
:10268000BFF34F8FBFF36F8FFFF72EFD012038BDD3
:1026900004F11000FFF75CFC04F12400FFF758FC84
:1026A000F2E700BF04ED00E070B50D46064640B904
:1026B0004FF0500383F31188BFF36F8FBFF34F8F39
:1026C000FEE748434830FFF75DFE044638B145B9A0
:1026D0002060E663256401212046FFF7A5FF204620
:1026E00070BD00F148030360F3E700002DE9FF47E8
:1026F000894601921F46044640B94FF0500383F3C8
:102700001188BFF36F8FBFF34F8FFEE7002940F0B2
:102710008880036C002B00F084804FF0500383F31B
:102720001188BFF36F8FBFF34F8FFEE7019E002E1E
:1027300000F082804FF0500383F31188BFF36F8F56
:10274000BFF34F8FFEE7019D1DB9FFF7CDFC0020C1
:1027500058E016B902A800F0B3FEFFF7C5FC00F080
:1027600077FCFFF79FFC94F84430FF2B08BF84F8F8
:10277000448094F84530FF2B08BF84F84580FFF76C
:10278000B3FC01A902A800F0A7FE002843D1FFF77F
:1027900089FCA66BE56BFFF7A7FCAE4235D101992A
:1027A00004F1100000F030FE2046FFF704FF00F0B7
:1027B000E9FC38B94FF08053CAF80030BFF34F8FAF
:1027C000BFF36F8F0126FFF76DFCA26BE36B9A429C
:1027D00001D3022FB7D13A4649462046FFF7A3FE60
:1027E000636A1BB104F1240000F028FE38B1194BD4
:1027F0004FF080521A60BFF34F8FBFF36F8FFFF718
:1028000073FC012004B0BDE8F0872046FFF7D3FE3B
:1028100000F0B8FCD6E72046FFF7CDFE00F0B2FC92
:1028200095E7022F02D1E36B012B0AD100F096FE4F
:1028300000283FF47BAF00264FF00008DFF814A01B
:10284000C1E74FF0500383F31188BFF36F8FBFF3DD
:102850004F8FFEE704ED00E010B502460021012095
:10286000FFF722FF044638B1002343600360C360D2
:102870001A461946FFF73AFF204610BD70B50D46BF
:10288000044640B94FF0500383F31188BFF36F8FB4
:10289000BFF34F8FFEE7036C43B14FF0500383F358
:1028A0001188BFF36F8FBFF34F8FFEE703680BB93B
:1028B000436873BBFFF714FDEFF311864FF050032D
:1028C00083F31188BFF36F8FBFF34F8FA26BE36B5E
:1028D0009A4201D3002014E094F8453001325BB2F3
:1028E000A2635A1C10D1636A0BB9012009E004F1FC
:1028F000240000F0A3FD0028F7D0002DF5D0012022
:10290000286086F3118870BD01335BB284F84530CE
:10291000EBE74FF0500383F31188BFF36F8FBFF3E2
:102920004F8FFEE72DE9FF410446019140B94FF07A
:10293000500383F31188BFF36F8FBFF34F8FFEE710
:10294000056C45B14FF0500383F31188BFF36F8FCF
:10295000BFF34F8FFEE700F001FE18B9019D002D77
:1029600040F09580DFF838812E460027FFF79AFB6C
:10297000A36BE3B1013BA363236813B900F0FCFE32
:102980006060236963B104F1100000F057FD38B1B5
:10299000434B4FF080521A60BFF34F8FBFF36F8FDE
:1029A000FFF7A2FB0125284604B0BDE8F081019B9A
:1029B00063B945B14FF0500383F31188BFF36F8FB4
:1029C000BFF34F8FFEE7FFF78FFBECE716B902A8C6
:1029D00000F076FDFFF788FB00F03AFBFFF762FBA3
:1029E00094F84430FF2B08BF84F8447094F84530C5
:1029F000FF2B08BF84F84570FFF776FB01A902A8FA
:102A000000F06AFD40BB2046FFF782FDF0B123686D
:102A10003BB9FFF747FB606800F0B0FD0546FFF7E4
:102A200063FB019904F1240000F0EEFC2046FFF75F
:102A3000C2FD00F0A7FB38B94FF08053C8F8003052
:102A4000BFF34F8FBFF36F8F01268FE72046FFF74D
:102A5000B2FD00F097FBF7E72046FFF7ACFD00F072
:102A600091FB2046FFF754FD0028EDD0002D9AD0B1
:102A7000FFF718FB616A19B1236B1968C1F10701EF
:102A8000606800F01FFE0025FFF72EFB8BE74FF07C
:102A9000500383F31188BFF36F8FBFF34F8FFEE7AF
:102AA00004ED00E02DE9F84389469046054640B91B
:102AB0004FF0500383F31188BFF36F8FBFF34F8F35
:102AC000FEE771BB036C63B34FF0500383F31188CF
:102AD000BFF36F8FBFF34F8FFEE795F84460494611
:102AE00076B22846FFF752FD013C731CAC6313D14C
:102AF0002B690BB901200BE005F1100000F09EFCE2
:102B00000028F7D0B8F1000FF4D00120C8F8000079
:102B100087F31188BDE8F883013676B285F8446002
:102B2000E8E7FFF7DDFBEFF311874FF0500383F386
:102B30001188BFF36F8FBFF34F8FAC6B002CCCD1DC
:102B40002046E5E740B94FF0500383F31188BFF307
:102B50006F8FBFF34F8FFEE74269064B9A4201D059
:102B600000207047806A044B9842F9D0B0FA80F098
:102B700040097047603E0020483E0020064A136826
:102B80001968064B19B94FF0FF321A607047126886
:102B9000D268D2685268F8E7683D0020403E0020C5
:102BA000F8B51B4B1B4E1D680446306804300F46B9
:102BB000FFF7FFF9334640B93168174EC96A3268EA
:102BC0000120884022EA00023260621C07D137B13E
:102BD000196812480431BDE8F840FFF7C7B92C4422
:102BE0001A68A542546007D90D4A10681968BDE8F3
:102BF000F8400431FFF7C6B90A4A10681968043171
:102C0000FFF7C0F9084B1A68944238BF1C60F8BD42
:102C1000883E0020643D0020103E0020603E0020E1
:102C20006C3D0020683D0020403E002080B5DFF86C
:102C30006480144F144C154E236863B9144B1B6801
:102C4000012BF8D94FF08053C8F80030BFF34F8FF5
:102C5000BFF36F8FEEE7FFF725FAFB68DD68281DED
:102C6000FFF7A7F93368013B33602368013B23601A
:102C7000FFF73AFA286BFFF713FC2846FFF710FC22
:102C8000DAE700BF743E0020003E0020FC3D00203B
:102C9000703D002004ED00E02DE9F84F4FEA820A74
:102CA000804650460F4699460B9EFFF76BFB054644
:102CB000002800F096805420FFF764FB04460028AB
:102CC00000F08C80AAF1040A056355447B1E25F0B0
:102CD000070A00F134020F37597802F8011B13F884
:102CE000011F09B1BB42F7D10A9D062D28BF062559
:102CF0004FF0000B271DE5626564384684F843B049
:102D0000C4F848B0FFF72FF9C5F1070504F1180022
:102D1000FFF729F9C4F84CB02461A561646284F816
:102D200050B04A4641465046FFF792F9206006B13E
:102D30003460FFF7B7F9324B324E1A68DFF8F08093
:102D400001321A603568002D4ED134601B68012BAA
:102D50001DD108EB05001435FFF7FAF88C2DF8D1DA
:102D6000DFF8D090284D4846FFF7F2F82846FFF7E5
:102D7000EFF82648FFF7ECF82548FFF7E9F8254873
:102D8000FFF7E6F8244BC3F80090244B1D60244A5B
:102D900024491368086801331360E26A012505FAC3
:102DA00002F3034314200B6000FB02803946FFF757
:102DB000DDF8FFF799F91C4B1B6863B13368DA6AD9
:102DC000E36A9A4207D2194B4FF080521A60BFF360
:102DD0004F8FBFF36F8F2846BDE8F88F2846FFF767
:102DE0005FFB4FF0FF35F6E70F4B1B68002BCED192
:102DF0003368DA6AE36A9A4298BF3460C7E700BF73
:102E0000FC3D0020643D0020283E0020483E00207C
:102E1000743E0020603E0020683D00206C3D002094
:102E20000C3E0020103E00205C3E002004ED00E03F
:102E3000703D0020143E002038B5054640B94FF0E3
:102E4000500383F31188BFF36F8FBFF34F8FFEE7FB
:102E5000134B1B6898421DD0FFF724F96C69FFF7EC
:102E600043F9104B1B689C4216D00F4B1B689C42C9
:102E700012D00E4B9C4205D1AB6A002B14BF02202E
:102E8000032038BD0A4B9C4208D0002C0CBF042004
:102E9000012038BD002038BD022038BD042038BDD7
:102EA000643D0020683D00206C3D0020603E002015
:102EB000743E002070B5044640B94FF0500383F3D0
:102EC0001188BFF36F8FBFF34F8FFEE7164D2B684E
:102ED000984228D0FFF7E6F82046FFF733FEF0B11E
:102EE000261D3046FFF765F81049E26A086801239D
:102EF000934003430B600E4B142000FB023031461D
:102F0000FFF734F82B68E26ADB6A9A4207D3094B71
:102F10004FF080521A60BFF34F8FBFF36F8FBDE841
:102F20007040FFF7E1B870BD643D0020103E002006
:102F3000703D002004ED00E0F8B5054640B94FF0C3
:102F4000500383F31188BFF36F8FBFF34F8FFEE7FA
:102F5000FFF7C6F9EFF311864FF0500383F31188A2
:102F6000BFF36F8FBFF34F8F2846FFF7EBFD38B3EA
:102F7000144B1B68EBB9144BEC6A1B68D86A2F1D05
:102F80008442384634BF00240124FFF712F80F4969
:102F9000EA6A08680123934003430B600C4B14203A
:102FA000394600FB0230FEF7E1FF86F31188204628
:102FB000F8BD05F118010748FEF7D8FF0024F4E733
:102FC0000446F2E7083E0020643D0020103E002049
:102FD000703D0020483E002013B5174B019300249C
:102FE00000942346802215491548FFF755FE012815
:102FF00014D14FF0500383F31188BFF36F8FBFF3E9
:103000004F8F104B4FF0FF321A600F4B18600F4B71
:103010001C6002B0BDE81040FFF7DCB8013008D1F9
:103020004FF0500383F31188BFF36F8FBFF34F8FBF
:10303000FEE702B010BD00BF3C3E002091400008FA
:103040002D2C0008403E00205C3E0020883E0020E1
:10305000024A136801331360704700BF083E002026
:103060002DE9F84F3C4B1B68002B53D13B4B1C68A0
:1030700001341C60BCB93A4B1A68126842B14FF077
:10308000500383F31188BFF36F8FBFF34F8FFEE7B9
:10309000344A1968106818601160334A13680133A4
:1030A0001360FFF76BFD314D314F2B689C424FF0A1
:1030B000000B3ED3DFF8A880DFF8C490D8F80020DA
:1030C000126872BB4FF0FF322A6032E006F1040A48
:1030D0005046FEF76EFFB16A19B106F11800FEF70F
:1030E00068FFF06AD9F80030012202FA00F11943B2
:1030F000204BC9F800104FF0140E51460EFB003063
:10310000FEF734FF3868F16AC26A914228BF4FF077
:10311000010BD3E7184A1368013313604FF0000B1B
:1031200011E0D8F80020D268D66871688C42CDD200
:1031300029603A680F4BD16A14224A439A58022AEE
:1031400028BF4FF0010B0D4A1268002A18BF4FF03C
:10315000010B5846BDE8F88F083E0020883E00204D
:10316000683D00206C3D0020443E0020403E002091
:10317000643D0020703D0020043E00208C3E002075
:10318000103E00202DE9F843314C236843B94FF03D
:10319000500383F31188BFF36F8FBFF34F8FFEE7A8
:1031A000FEF780FF2368013B236024682CB10024D4
:1031B000FEF79AFF2046BDE8F883264B1B68002BDC
:1031C000F5D0DFF8A890244FDFF8A480D9F80030BC
:1031D000E3B90CB1FFF7D2FC204D2C6844B1204E6E
:1031E0000127FFF73DFF00B13760013CF9D12C60AA
:1031F0001B4B1B68002BDAD01A4B4FF080521A6021
:10320000BFF34F8FBFF36F8F0124D1E7D9F80C3094
:10321000DC68261D04F11800FEF7CBFE3046FEF7F1
:10322000C8FEE26A3968012505FA02F314200B434F
:1032300000FB028031463B60FEF798FE0A4BE26AD3
:103240001B68DB6A9A4224BF054B1D60BEE700BFC6
:10325000083E0020FC3D0020103E0020043E0020DF
:103260008C3E002004ED00E0643D0020483E00203C
:10327000703D002008B540B90E4B4FF080521A60E7
:10328000BFF34F8FBFF36F8F08BD0B4B196841B170
:103290004FF0500383F31188BFF36F8FBFF34F8F4D
:1032A000FEE7FFF7D5FEFFF77BFCFFF76BFF00287B
:1032B000E2D008BD04ED00E0083E0020174B1A687C
:1032C000174B10B512B101221A6010BD1A60154BD0
:1032D0001B68B3FA83F3DBB2C3F11F031422124954
:1032E0005A4388188C5844B94FF0500383F311881F
:1032F000BFF36F8FBFF34F8FFEE7446808326468F7
:1033000044600A44944204BF62684260142202FB93
:1033100003135B68DA68054BD6E700BF083E002060
:103320008C3E0020103E0020703D0020643D0020B7
:1033300070B504462C4EFEF7B5FE04B93468251D61
:103340002846FEF736FE60B9E06A284B1421414357
:103350005B5833B9264901220B68824023EA0203F5
:103360000B60A36A1BB104F11800FEF722FE294688
:103370002048214DFEF7FAFD94F85030012B04BF90
:10338000002384F85030FEF7AFFE2A682AB1FEF71A
:1033900089FEFFF7F3FBFEF7A7FE33689C4222D1BC
:1033A0002B68A3B1154B1B6843B14FF0500383F357
:1033B0001188BFF36F8FBFF34F8FFEE7104B4FF0B5
:1033C00080521A60BFF34F8FBFF36F8F70BD094AF1
:1033D00011680C4A1268914201D1336070BDBDE89A
:1033E0007040FFF76BBF70BD643D0020703D002052
:1033F000103E0020603E00205C3E0020083E002081
:1034000004ED00E0FC3D002010B50C4640B94FF043
:10341000500383F31188BFF36F8FBFF34F8FFEE725
:10342000054B19681831FEF7ADFD20460121BDE8B6
:103430001040FFF7B5BB00BF643D002038B5C3683E
:10344000DC6844B94FF0500383F31188BFF36F8FEA
:10345000BFF34F8FFEE704F118052846FEF7A9FDDC
:10346000114B1B68E3B9251D2846FEF7A2FD0F4945
:10347000E26A08680123934003430B600C4B14205D
:10348000294600FB0230FEF771FD0A4BE26A1B6819
:10349000DB6A9A4283BF084B01201860002038BDC8
:1034A00029460648EFE700BF083E0020103E0020F6
:1034B000703D0020643D00208C3E0020483E0020EE
:1034C000034B1B680360034B1B684360704700BFDE
:1034D000443E0020883E002070B50C46054640B9A9
:1034E0004FF0500383F31188BFF36F8FBFF34F8FFB
:1034F000FEE741B94FF0500383F31188BFF36F8F9C
:10350000BFF34F8FFEE7FEF7CDFD0F4B69681A68DA
:103510002368581C0ED00D482E680068864201D0E2
:103520008A420ED2521A9A4209D29B1A2360284626
:10353000FFF7C6FF0024FEF7D7FD204670BD00232D
:1035400023600124F7E700BF883E0020443E0020AE
:10355000014B01221A6070478C3E0020054B1B680E
:1035600033B1054B1B68002B0CBF022000207047B5
:10357000012070475C3E0020083E00202DE9F0410C
:103580000446002841D0244AC36A1168C96A8B42A4
:10359000174631D28269214D002AA1BF3A68D26A0A
:1035A000C2F1070282611426426906FB03539A4264
:1035B0002DD100F104084046FEF7FBFC184B48B93A
:1035C000E06A4643AA592AB91A680121814022EAD1
:1035D00001021A603A681968D26AE262012404FAA8
:1035E00002F0084318601420414600FB0250FEF729
:1035F000BDFC0120BDE8F0811368406CDC6AA0428C
:103600002CBF00200120BDE8F081BDE8F0813B68BF
:10361000DB6AC362EDE700BF643D0020703D00201F
:10362000103E0020F8B5044608B90020F8BD224B32
:103630001B68984208D04FF0500383F31188BFF302
:103640006F8FBFF34F8FFEE7836C43B94FF050038A
:1036500083F31188BFF36F8FBFF34F8FFEE7C16A0B
:10366000426C013B91428364DFD0002BDDD1051D0C
:103670002846FEF79EFC114E114A50B9E76A142104
:10368000794373582BB913680120B84023EA00032B
:103690001360636CE362C3F10701A1611168012447
:1036A00004FA03F008431060142000FB036029466D
:1036B000FEF75CFC2046F8BD643D0020703D002014
:1036C000103E0020F8B5044600284DD0826C42B967
:1036D0004FF0500383F31188BFF36F8FBFF34F8F09
:1036E000FEE7436C994238BF1946C36A8B423BD010
:1036F000012A39D11D4A1268904208D14FF0500377
:1037000083F31188BFF36F8FBFF34F8FFEE782699A
:10371000174DC162002A4FF014064269A8BFC1F1DB
:10372000070106FB0353A8BF81619A421CD1071D04
:103730003846FEF73EFCE26A0E4C40B95643AB59A0
:103740002BB923680121914023EA010323602168FA
:10375000012393400B4314202360394600FB0250A1
:10376000BDE8F840FEF702BCF8BD00BF643D002094
:10377000703D0020103E0020044B1A681AB11968F1
:103780008A6C01328A641868704700BF643D00206B
:1037900080B58EB000AFF860B9601346FB80BB689F
:1037A0003E4A93420DD100233B623D4A3C4B1B6B8A
:1037B00043F0010313633A4B1B6B03F001033B62BD
:1037C0003B6ABB68374A93420DD10023FB61344A00
:1037D000334B1B6B43F002031363314B1B6B03F042
:1037E0000203FB61FB69BB682F4A93420DD10023A2
:1037F000BB612B4A2A4B1B6B43F004031363284B1A
:103800001B6B03F00403BB61BB69BB68274A93428F
:103810000DD100237B61224A214B1B6B43F008032F
:1038200013631F4B1B6B03F008037B617B69BB6851
:103830001F4A93420DD100233B61194A184B1B6B61
:1038400043F010031363164B1B6B03F010033B6133
:103850003B6907F1240300221A605A609A60DA601B
:103860001A610123BB620023FB6201233B6307F162
:1038700024031946B868FDF72FFEFB88002219467D
:10388000B868FDF709FFFB68BA681A60FB68FA8838
:103890009A80FB6818463837BD4680BD000002405C
:1038A000003802400004024000080240000C0240C0
:1038B00000100240B0B596B000AFFDF78DFD00F0EE
:1038C00063F800F0D5F800237B6507F15403184630
:1038D000FEF7C5FA0246234B1A60234B07F140045A
:1038E0001D460FCD0FC42B68236007F14003002154
:1038F0001846FEF794FA02461C4B1A601C4B07F15F
:103900002C041D460FCD0FC42B68236007F12C0338
:1039100000211846FEF783FA0246164B1A60164B32
:1039200007F118041D460FCD0FC42B68236007F163
:10393000180300211846FEF772FA02460F4B1A6070
:103940000F4B3C1D1D460FCD0FC42B6823603B1D44
:1039500000211846FEF763FA02460A4B1A60FEF78A
:1039600059FAFEE72C010020184000081C01002035
:1039700038400008200100205840000824010020A1
:10398000784000082801002080B594B000AF07F10E
:10399000200330220021184600F0D9FA07F10C0369
:1039A00000221A605A609A60DA601A610023BB60D4
:1039B0002D4A2D4B1B6C43F0805313642A4B1B6C18
:1039C00003F08053BB60BB6800237B60274A274B12
:1039D0001B6843F480431360244B1B6803F480434B
:1039E0007B607B6802233B620123FB6210233B6305
:1039F0000223BB630023FB6308233B64A8237B648F
:103A00000223BB640723FB6407F120031846FDF77C
:103A10004FFE0346002B14BF01230023DBB2002B13
:103A200001D000F062F90F23FB6002233B61002309
:103A30007B614FF4A053BB614FF48053FB6107F1EE
:103A40000C0305211846FDF7E3FF0346002B14BFC6
:103A500001230023DBB2002B01D000F046F900BFA8
:103A60005037BD4680BD00BF0038024000700040A6
:103A700080B586B000AF3B1D00221A605A609A6084
:103A8000DA601A6100233B60114A114B1B6B43F053
:103A9000080313630E4B1B6B03F008033B603B688A
:103AA00000224FF470410B48FDF7F6FD4FF47043D0
:103AB0007B600123BB600023FB6000233B613B1D57
:103AC00019460448FDF708FD00BF1837BD4680BD04
:103AD00000380240000C024080B582B000AF786030
:103AE0000A20FEF7B4F9FBE780B582B000AF78603A
:103AF0001A4B1B6802211846FEF7B4F90346002B47
:103B000014BF01230023DBB2002B04D04FF400517B
:103B10001348FDF7C6FD1420FEF799F90F4B1B68FB
:103B20001846FEF7E9F90346002B14BF01230023D2
:103B3000DBB2002B04D04FF400510948FDF7B1FD72
:103B4000084B1B680133074A13604FF48051044847
:103B5000FDF7A7FD0020FEF7DDF9C9E72C010020E5
:103B6000000C02403001002080B582B000AF7860C8
:103B7000234B1B6841F288311846FEF773F9034660
:103B8000002B0CBF01230023DBB2002B32D01D4BD6
:103B90001B681846FEF7B2F90346032B14BF012336
:103BA0000023DBB2002B05D04FF400511648FDF77F
:103BB00078FDDDE7124B1B681846FEF79DF90346BA
:103BC000002B14BF01230023DBB2002B04D04FF4E1
:103BD00000510D48FDF765FD0C4B1B6801330B4A86
:103BE00013604FF480410848FDF75BFD0020FEF7AD
:103BF00091F9BDE74FF400510348FDF752FDB7E7D7
:103C00002C01002020010020000C02403401002083
:103C100080B582B000AF7860274B1B680021184642
:103C2000FEF720F90346002B0CBF01230023DBB273
:103C3000002BF1D0214B1B681846FEF75FF90346B5
:103C4000032B07D11E4B1B681846FEF757F9034696
:103C5000032B01D0012300E00023002B05D04FF4FB
:103C600000511848FDF71DFDD6E7144B1B68184698
:103C7000FEF756F9124B1B681846FEF751F90E4B2A
:103C80001B681846FEF738F90346002B14BF0123C2
:103C90000023DBB2002B04D04FF400510948FDF79C
:103CA00000FD094B1B680133074A13604FF40041C4
:103CB0000448FDF7F6FCAFE72C01002020010020AE
:103CC00024010020000C02403801002080B582B0A1
:103CD00000AF78607B681B68B3F1804F01D1FDF7BE
:103CE00095FB00BF0837BD4680BD80B400AF00BF64
:103CF000BD465DF8047B704780B582B000AF786048
:103D000039607B68012B09D13B684FF6FF72934203
:103D100004D10C2203490448FFF73AFD00BF0837DD
:103D2000BD4680BD000002403C01002080B500AFD0
:103D30004FF6FF710120FFF7DFFF80BD13B5134B76
:103D4000002400945A6C42F480425A645A6C02F483
:103D500080420092009A01941A6C42F080521A64D8
:103D60001B6C03F08053019322460F216FF001007A
:103D7000019BFDF76FFB052108462246FDF76AFB14
:103D80000520FDF79BFB02B010BD00BF00380240CC
:103D900030B5014689B000221C20FDF75BFB1C20DA
:103DA000FDF78CFB0025154B02951A6C144C42F064
:103DB00001021A641B6C03F00103029301A903A81A
:103DC000029BFDF7CFFEFDF7BDFE4FF08043236061
:103DD00040F2E733E36040000A4BB0FBF3F00138F8
:103DE000606020462561A560FDF7F8FF20B92046F8
:103DF000FDF7D7FE09B030BD0120FBE700380240D7
:103E0000943E002040420F007047FEE7FEE7FEE7C9
:103E1000FEE77047704700000148FDF7D6BE00BFBF
:103E2000943E00200120704708B500F05BF816238F
:103E300003604FF0FF3008BD08B500F053F81623BB
:103E40000360FEE70F49D1F8883043F47003C1F8EE
:103E500088300D4B1A68002042F001021A60986009
:103E60001A6822F0847222F480321A60074A5A607B
:103E70001A6822F480221A60D8604FF000638B60C9
:103E8000704700BF00ED00E0003802401030002411
:103E9000DFF834D0002103E00C4B5B584350043171
:103EA0000B480C4B42189A42F6D30B4A02E000230F
:103EB00042F8043B094B9A42F9D3FFF7C3FF00F0E5
:103EC00017F8FFF7F7FC704700000220484200088F
:103ED000000000200001002000010020D83E00204A
:103EE000FEE70000014B1868704700BF0C0000207F
:103EF00070B50D4E0D4CA41BA4100025A54209D190
:103F00000B4E0C4C00F076F8A41BA4100025A54223
:103F100005D170BD56F8253098470135EEE756F8C3
:103F2000253098470135F2E73C4200083C42000842
:103F30003C4200084442000810B5431E0A44914226
:103F400000D110BD11F8014B03F8014FF7E702440F
:103F50000346934200D1704703F8011BF9E708B507
:103F6000062000F02BF80120FFF766FF1F2938B567
:103F700004460D4604D9162303604FF0FF3038BDC8
:103F8000426C12B152F821304BB9204600F030F8A3
:103F90002A4601462046BDE8384000F017B8012BFC
:103FA0000AD0591C03D116230360012038BD002418
:103FB00042F8254028469847002038BD024B01466C
:103FC0001868FFF7D3BF00BF0C00002038B5074CBE
:103FD00000230546084611462360FFF725FF431CD2
:103FE00002D1236803B12B6038BD00BFD43E00204E
:103FF000FFF718BFF8B500BFF8BC08BC9E46704775
:0C400000F8B500BFF8BC08BC9E46704735
:10400C0064656661756C745461736B000C400008D8
:10401C00D93A0008FDFF00000000000080000000FD
:10402C004C656430315461736B0000002C40000807
:10403C00E93A0008020000000000000080000000C7
:10404C004C656430325461736B0000004C400008C6
:10405C00693B000800000000000000008000000028
:10406C004C656430335461736B0000006C40000885
:10407C00113C0008FEFF0000000000008000000062
:10408C00000102030449444C4500000000000000FC
:10409C0000000102030406070809000000000102E9
:0440AC000304000009
:1040B0000D970181B0B008840000000015970181C0
:1040C000B0B00B840000000013970181B0B00884E9
:1040D0000000000005970181B0B0088400000000D6
:1040E00001970181B0B008840000000001970181B0
:1040F000B0B008840000000001970181B0B00884CE
:104100000000000001970181B0B0088400000000A9
:1041100001970181B0B008840000000008B101815E
:10412000B0B000840000000008B10181B0B000848C
:04413000000000008B
:10413400CCC0FF7F010000003CC4FF7FB0A9028017
:10414400D4C4FF7FB0B0A88024C5FF7F0100000065
:1041540030C5FF7FB0B0AA8068C5FF7FAE71B28062
:1041640038C6FF7F0100000034C6FF7FAB3F3880B4
:104174008CC6FF7F0100000098C6FF7FB0B0AA8004
:10418400D4C6FF7F0100000088C7FF7FAB0EB2805A
:10419400F0C7FF7FB0AF0A80B8CAFF7F01000000FC
:1041A400BCCAFF7FAB3F0480FCCCFF7F0100000052
:1041B400D8CEFF7F00840480ECCEFF7F0100000096
:1041C400E8CEFF7FB0AD0480B0D1FF7FB0A80380FC
:1041D400D0D1FF7F44FFFF7FD4D1FF7F48FFFF7F13
:1041E400E0D1FF7F01000000A4F5FF7FC0FEFF7F48
:1041F400C0F6FF7FC4FEFF7F8CF7FF7FC8FEFF7F02
:104204006CF8FF7FCCFEFF7FCCF8FF7FD0FEFF7FF2
:10421400D4F8FF7FD4FEFF7F4CF9FF7FD8FEFF7FE9
:10422400ECF9FF7FDCFEFF7FA0FAFF7FE0FEFF7F5B
:08423400B6FAFF7F0100000053
:08423C00B50100082D3D00084A
:0442440091010008DC
:1042480001000000AAAAAAAA0024F4001000002075
:104258000000000000000000000000000000000056
:104268000000000000000000000000000000000046
:104278000000000000000000000000000000000036
:104288000000000000000000000000000000000026
:104298000000000000000000000000000000000016
:1042A8000000000000000000000000000000000006
:1042B80000000000000000000000000000000000F6
:1042C80000000000000000000000000000000000E6
:1042D80000000000000000000000000000000000D6
:1042E80000000000000000000000000000000000C6
:1042F80000000000000000000000000000000000B6
:1043080000000000000000000000000000000000A5
:104318000000000000000000000000000000000095
:104328000000000000000000000000000000000085
:104338000000000000000000000000000000000075
:0400000508003E9120
:00000001FF
